{
  "_format": "hh-sol-artifact-1",
  "contractName": "RWalletFactory",
  "sourceName": "contracts/wallet/RWalletFactory.sol",
  "abi": [
    {
      "inputs": [
        {
          "internalType": "contract IEntryPoint",
          "name": "_entryPoint",
          "type": "address"
        }
      ],
      "stateMutability": "nonpayable",
      "type": "constructor"
    },
    {
      "anonymous": false,
      "inputs": [
        {
          "indexed": true,
          "internalType": "address",
          "name": "owner",
          "type": "address"
        },
        {
          "indexed": true,
          "internalType": "address",
          "name": "account",
          "type": "address"
        }
      ],
      "name": "WalletCreated",
      "type": "event"
    },
    {
      "inputs": [],
      "name": "accountImplementation",
      "outputs": [
        {
          "internalType": "contract RWallet",
          "name": "",
          "type": "address"
        }
      ],
      "stateMutability": "view",
      "type": "function"
    },
    {
      "inputs": [
        {
          "internalType": "address",
          "name": "owner",
          "type": "address"
        },
        {
          "internalType": "uint256",
          "name": "salt",
          "type": "uint256"
        }
      ],
      "name": "createAccount",
      "outputs": [
        {
          "internalType": "contract RWallet",
          "name": "ret",
          "type": "address"
        }
      ],
      "stateMutability": "nonpayable",
      "type": "function"
    },
    {
      "inputs": [
        {
          "internalType": "address",
          "name": "owner",
          "type": "address"
        },
        {
          "internalType": "uint256",
          "name": "salt",
          "type": "uint256"
        }
      ],
      "name": "getAddress",
      "outputs": [
        {
          "internalType": "address",
          "name": "",
          "type": "address"
        }
      ],
      "stateMutability": "view",
      "type": "function"
    },
    {
      "inputs": [
        {
          "internalType": "address",
          "name": "account",
          "type": "address"
        }
      ],
      "name": "isWallet",
      "outputs": [
        {
          "internalType": "bool",
          "name": "",
          "type": "bool"
        }
      ],
      "stateMutability": "view",
      "type": "function"
    },
    {
      "inputs": [
        {
          "internalType": "address",
          "name": "entryPoint",
          "type": "address"
        },
        {
          "internalType": "uint32",
          "name": "unstakeDelaySec",
          "type": "uint32"
        }
      ],
      "name": "stake",
      "outputs": [],
      "stateMutability": "payable",
      "type": "function"
    }
  ],
  "bytecode": "0x60a060405234801561001057600080fd5b5060405161497938038061497983398101604081905261002f91610088565b8060405161003c9061007b565b6001600160a01b039091168152602001604051809103906000f080158015610068573d6000803e3d6000fd5b506001600160a01b0316608052506100b8565b613898806110e183390190565b60006020828403121561009a57600080fd5b81516001600160a01b03811681146100b157600080fd5b9392505050565b6080516110016100e060003960008181607a0152818161025a01526103a601526110016000f3fe608060405260043610620000615760003560e01c80638cb84e1811620000485780638cb84e1814620000eb578063c7e55f3e1462000110578063ce5570ec146200012957600080fd5b806311464fbe14620000665780635fbfb9cf14620000c6575b600080fd5b3480156200007357600080fd5b506200009c7f000000000000000000000000000000000000000000000000000000000000000081565b60405173ffffffffffffffffffffffffffffffffffffffff90911681526020015b60405180910390f35b348015620000d357600080fd5b506200009c620000e536600462000687565b62000184565b348015620000f857600080fd5b506200009c6200010a36600462000687565b62000339565b6200012762000121366004620006b4565b620004b1565b005b3480156200013657600080fd5b506200017362000148366004620006f8565b73ffffffffffffffffffffffffffffffffffffffff1660009081526020819052604090205460ff1690565b6040519015158152602001620000bd565b60008062000193848462000339565b905073ffffffffffffffffffffffffffffffffffffffff81163b8015620001bd5750905062000333565b73ffffffffffffffffffffffffffffffffffffffff80831660008181526020819052604080822080547fffffffffffffffffffffffffffffffffffffffffffffffffffffffffffffff001660011790555191928816917f5b03bfed1c14a02bdeceb5fa582eb1a5765fc0bc64ca0e6af4c20afc9487f0819190a360405173ffffffffffffffffffffffffffffffffffffffff8616602482015284907f000000000000000000000000000000000000000000000000000000000000000090604401604080517fffffffffffffffffffffffffffffffffffffffffffffffffffffffffffffffe08184030181529181526020820180517bffffffffffffffffffffffffffffffffffffffffffffffffffffffff167fc4d66de80000000000000000000000000000000000000000000000000000000017905251620002ff906200064f565b6200030c92919062000749565b8190604051809103906000f59050801580156200032d573d6000803e3d6000fd5b50925050505b92915050565b6000620004aa8260001b6040518060200162000355906200064f565b7fffffffffffffffffffffffffffffffffffffffffffffffffffffffffffffffe082820381018352601f90910116604081905273ffffffffffffffffffffffffffffffffffffffff871660248201527f000000000000000000000000000000000000000000000000000000000000000090604401604080517fffffffffffffffffffffffffffffffffffffffffffffffffffffffffffffffe0818403018152918152602080830180517bffffffffffffffffffffffffffffffffffffffffffffffffffffffff167fc4d66de8000000000000000000000000000000000000000000000000000000001790529051620004509392910162000749565b604080517fffffffffffffffffffffffffffffffffffffffffffffffffffffffffffffffe0818403018152908290526200048e9291602001620007b9565b604051602081830303815290604052805190602001206200061c565b9392505050565b60405163ffffffff8216602482015260009073ffffffffffffffffffffffffffffffffffffffff8416903490604401604080517fffffffffffffffffffffffffffffffffffffffffffffffffffffffffffffffe08184030181529181526020820180517bffffffffffffffffffffffffffffffffffffffffffffffffffffffff167f0396cb600000000000000000000000000000000000000000000000000000000017905251620005639190620007ec565b60006040518083038185875af1925050503d8060008114620005a2576040519150601f19603f3d011682016040523d82523d6000602084013e620005a7565b606091505b505090508062000617576040517f08c379a000000000000000000000000000000000000000000000000000000000815260206004820152601160248201527f7374616b652063616c6c206661696c6564000000000000000000000000000000604482015260640160405180910390fd5b505050565b6000620004aa8383306000604051836040820152846020820152828152600b8101905060ff815360559020949350505050565b6107c1806200080b83390190565b803573ffffffffffffffffffffffffffffffffffffffff811681146200068257600080fd5b919050565b600080604083850312156200069b57600080fd5b620006a6836200065d565b946020939093013593505050565b60008060408385031215620006c857600080fd5b620006d3836200065d565b9150602083013563ffffffff81168114620006ed57600080fd5b809150509250929050565b6000602082840312156200070b57600080fd5b620004aa826200065d565b60005b838110156200073357818101518382015260200162000719565b8381111562000743576000848401525b50505050565b73ffffffffffffffffffffffffffffffffffffffff8316815260406020820152600082518060408401526200078681606085016020870162000716565b601f017fffffffffffffffffffffffffffffffffffffffffffffffffffffffffffffffe016919091016060019392505050565b60008351620007cd81846020880162000716565b835190830190620007e381836020880162000716565b01949350505050565b600082516200080081846020870162000716565b919091019291505056fe60806040526040516107c13803806107c183398101604081905261002291610321565b61002e82826000610035565b505061043e565b61003e8361006b565b60008251118061004b5750805b156100665761006483836100ab60201b6100291760201c565b505b505050565b610074816100d7565b6040516001600160a01b038216907fbc7cd75a20ee27fd9adebab32041f755214dbc6bffa90cc0225b39da2e5c2d3b90600090a250565b60606100d0838360405180606001604052806027815260200161079a602791396101a9565b9392505050565b6100ea8161022260201b6100551760201c565b6101515760405162461bcd60e51b815260206004820152602d60248201527f455243313936373a206e657720696d706c656d656e746174696f6e206973206e60448201526c1bdd08184818dbdb9d1c9858dd609a1b60648201526084015b60405180910390fd5b806101887f360894a13ba1a3210667c828492db98dca3e2076cc3735a920a3ca505d382bbc60001b61023160201b6100711760201c565b80546001600160a01b0319166001600160a01b039290921691909117905550565b6060600080856001600160a01b0316856040516101c691906103ef565b600060405180830381855af49150503d8060008114610201576040519150601f19603f3d011682016040523d82523d6000602084013e610206565b606091505b50909250905061021886838387610234565b9695505050505050565b6001600160a01b03163b151590565b90565b606083156102a357825160000361029c576001600160a01b0385163b61029c5760405162461bcd60e51b815260206004820152601d60248201527f416464726573733a2063616c6c20746f206e6f6e2d636f6e74726163740000006044820152606401610148565b50816102ad565b6102ad83836102b5565b949350505050565b8151156102c55781518083602001fd5b8060405162461bcd60e51b8152600401610148919061040b565b634e487b7160e01b600052604160045260246000fd5b60005b838110156103105781810151838201526020016102f8565b838111156100645750506000910152565b6000806040838503121561033457600080fd5b82516001600160a01b038116811461034b57600080fd5b60208401519092506001600160401b038082111561036857600080fd5b818501915085601f83011261037c57600080fd5b81518181111561038e5761038e6102df565b604051601f8201601f19908116603f011681019083821181831017156103b6576103b66102df565b816040528281528860208487010111156103cf57600080fd5b6103e08360208301602088016102f5565b80955050505050509250929050565b600082516104018184602087016102f5565b9190910192915050565b602081526000825180602084015261042a8160408501602087016102f5565b601f01601f19169190910160400192915050565b61034d8061044d6000396000f3fe60806040523661001357610011610017565b005b6100115b610027610022610074565b6100b9565b565b606061004e83836040518060600160405280602781526020016102f1602791396100dd565b9392505050565b73ffffffffffffffffffffffffffffffffffffffff163b151590565b90565b60006100b47f360894a13ba1a3210667c828492db98dca3e2076cc3735a920a3ca505d382bbc5473ffffffffffffffffffffffffffffffffffffffff1690565b905090565b3660008037600080366000845af43d6000803e8080156100d8573d6000f35b3d6000fd5b60606000808573ffffffffffffffffffffffffffffffffffffffff16856040516101079190610283565b600060405180830381855af49150503d8060008114610142576040519150601f19603f3d011682016040523d82523d6000602084013e610147565b606091505b509150915061015886838387610162565b9695505050505050565b606083156101fd5782516000036101f65773ffffffffffffffffffffffffffffffffffffffff85163b6101f6576040517f08c379a000000000000000000000000000000000000000000000000000000000815260206004820152601d60248201527f416464726573733a2063616c6c20746f206e6f6e2d636f6e747261637400000060448201526064015b60405180910390fd5b5081610207565b610207838361020f565b949350505050565b81511561021f5781518083602001fd5b806040517f08c379a00000000000000000000000000000000000000000000000000000000081526004016101ed919061029f565b60005b8381101561026e578181015183820152602001610256565b8381111561027d576000848401525b50505050565b60008251610295818460208701610253565b9190910192915050565b60208152600082518060208401526102be816040850160208701610253565b601f017fffffffffffffffffffffffffffffffffffffffffffffffffffffffffffffffe016919091016040019291505056fe416464726573733a206c6f772d6c6576656c2064656c65676174652063616c6c206661696c6564a26469706673582212207206d121ffa3833c53409418e4fa745480d0e85b53510553873d6d68cc9bcdb864736f6c634300080f0033416464726573733a206c6f772d6c6576656c2064656c65676174652063616c6c206661696c6564a2646970667358221220fda89930903ecd9fdf61f1d5700245538d5218c38a06c5e1232ec8b7ed113ac764736f6c634300080f003360c0604052306080523480156200001557600080fd5b506040516200389838038062003898833981016040819052620000389162000262565b6001600160a01b03811660a0526200004f620001a1565b506040805160c081018252600080825260208201818152928201818152606083018281526080840183815260a08501848152600180548082018255955294517fb10e2d527612073b26eecdfd717e6a320cf44b4afac2b0732d9fcbe2b7fa0cf660069095029485015594517fb10e2d527612073b26eecdfd717e6a320cf44b4afac2b0732d9fcbe2b7fa0cf7840180546001600160a01b03199081166001600160a01b039384161790915592517fb10e2d527612073b26eecdfd717e6a320cf44b4afac2b0732d9fcbe2b7fa0cf885015590517fb10e2d527612073b26eecdfd717e6a320cf44b4afac2b0732d9fcbe2b7fa0cf984018054909316911617905591517fb10e2d527612073b26eecdfd717e6a320cf44b4afac2b0732d9fcbe2b7fa0cfa830155517fb10e2d527612073b26eecdfd717e6a320cf44b4afac2b0732d9fcbe2b7fa0cfb9091015562000294565b600054610100900460ff16156200020e5760405162461bcd60e51b815260206004820152602760248201527f496e697469616c697a61626c653a20636f6e747261637420697320696e697469604482015266616c697a696e6760c81b606482015260840160405180910390fd5b60005460ff9081161462000260576000805460ff191660ff9081179091556040519081527f7f26b83ff96e1f2b6a682f133852f6798a09c465da95921460cefb38474024989060200160405180910390a15b565b6000602082840312156200027557600080fd5b81516001600160a01b03811681146200028d57600080fd5b9392505050565b60805160a05161359162000307600039600081816104b401528181610a7901528181610b20015281816110fd0152818161134e01528181611395015281816117600152611bc90152600081816108630152818161091301528181610be401528181610c940152610ddd01526135916000f3fe6080604052600436106101995760003560e01c806389018897116100e1578063bc197c811161008a578063c399ec8811610064578063c399ec88146105b3578063c4d66de8146105c8578063d087d288146105e8578063f23a6e61146105fd57600080fd5b8063bc197c81146104f8578063c0fad17d14610540578063c2c959a81461059357600080fd5b8063aa4a8711116100bb578063aa4a871114610483578063b0d691fe146104a5578063b61d27f6146104d857600080fd5b806389018897146103c857806389e5900a146103e85780638da5cb5b1461042b57600080fd5b80633a871cdd116101435780634f1ef2861161011d5780634f1ef2861461035d57806352d1902d146103705780638268e4d01461038557600080fd5b80633a871cdd146103155780634a58db19146103355780634d44560d1461033d57600080fd5b8063150b7a0211610174578063150b7a021461025f57806318dfb3c7146102d55780633659cfe6146102f557600080fd5b806223de29146101a557806301ffc9a7146101cc57806312c86a6d1461020157600080fd5b366101a057005b600080fd5b3480156101b157600080fd5b506101ca6101c0366004612c2e565b5050505050505050565b005b3480156101d857600080fd5b506101ec6101e7366004612cdf565b610643565b60405190151581526020015b60405180910390f35b34801561020d57600080fd5b5061025161021c366004612d21565b73ffffffffffffffffffffffffffffffffffffffff919091166000908152600260209081526040808320938352929052205490565b6040519081526020016101f8565b34801561026b57600080fd5b506102a461027a366004612d4d565b7f150b7a020000000000000000000000000000000000000000000000000000000095945050505050565b6040517fffffffff0000000000000000000000000000000000000000000000000000000090911681526020016101f8565b3480156102e157600080fd5b506101ca6102f0366004612e05565b610728565b34801561030157600080fd5b506101ca610310366004612e71565b61084c565b34801561032157600080fd5b50610251610330366004612e8e565b610a51565b6101ca610a77565b34801561034957600080fd5b506101ca610358366004612d21565b610b16565b6101ca61036b366004612f11565b610bcd565b34801561037c57600080fd5b50610251610dc3565b34801561039157600080fd5b506102516103a0366004612e71565b73ffffffffffffffffffffffffffffffffffffffff1660009081526003602052604090205490565b3480156103d457600080fd5b506101ca6103e3366004612ff3565b610eaf565b3480156103f457600080fd5b50610251610403366004612e71565b73ffffffffffffffffffffffffffffffffffffffff1660009081526005602052604090205490565b34801561043757600080fd5b5060005461045e9062010000900473ffffffffffffffffffffffffffffffffffffffff1681565b60405173ffffffffffffffffffffffffffffffffffffffff90911681526020016101f8565b34801561048f57600080fd5b50610498610f45565b6040516101f8919061300c565b3480156104b157600080fd5b507f000000000000000000000000000000000000000000000000000000000000000061045e565b3480156104e457600080fd5b506101ca6104f336600461309f565b610ff5565b34801561050457600080fd5b506102a46105133660046130ef565b7fbc197c810000000000000000000000000000000000000000000000000000000098975050505050505050565b34801561054c57600080fd5b506101ec61055b366004612d21565b73ffffffffffffffffffffffffffffffffffffffff919091166000908152600460209081526040808320938352929052205460ff1690565b34801561059f57600080fd5b506101ca6105ae366004612ff3565b611044565b3480156105bf57600080fd5b506102516110b7565b3480156105d457600080fd5b506101ca6105e3366004612e71565b61116e565b3480156105f457600080fd5b50610251611301565b34801561060957600080fd5b506102a461061836600461318d565b7ff23a6e61000000000000000000000000000000000000000000000000000000009695505050505050565b60007fffffffff0000000000000000000000000000000000000000000000000000000082167f150b7a020000000000000000000000000000000000000000000000000000000014806106d657507fffffffff0000000000000000000000000000000000000000000000000000000082167f4e2312e000000000000000000000000000000000000000000000000000000000145b8061072257507fffffffff0000000000000000000000000000000000000000000000000000000082167f01ffc9a700000000000000000000000000000000000000000000000000000000145b92915050565b61073061137d565b82811461079e576040517f08c379a000000000000000000000000000000000000000000000000000000000815260206004820152601360248201527f77726f6e67206172726179206c656e677468730000000000000000000000000060448201526064015b60405180910390fd5b60005b83811015610845576108338585838181106107be576107be613209565b90506020020160208101906107d39190612e71565b60008585858181106107e7576107e7613209565b90506020028101906107f99190613238565b8080601f01602080910402602001604051908101604052809392919081815260200183838082843760009201919091525061144692505050565b8061083d816132cc565b9150506107a1565b5050505050565b73ffffffffffffffffffffffffffffffffffffffff7f0000000000000000000000000000000000000000000000000000000000000000163003610911576040517f08c379a000000000000000000000000000000000000000000000000000000000815260206004820152602c60248201527f46756e6374696f6e206d7573742062652063616c6c6564207468726f7567682060448201527f64656c656761746563616c6c00000000000000000000000000000000000000006064820152608401610795565b7f000000000000000000000000000000000000000000000000000000000000000073ffffffffffffffffffffffffffffffffffffffff166109867f360894a13ba1a3210667c828492db98dca3e2076cc3735a920a3ca505d382bbc5473ffffffffffffffffffffffffffffffffffffffff1690565b73ffffffffffffffffffffffffffffffffffffffff1614610a29576040517f08c379a000000000000000000000000000000000000000000000000000000000815260206004820152602c60248201527f46756e6374696f6e206d7573742062652063616c6c6564207468726f7567682060448201527f6163746976652070726f787900000000000000000000000000000000000000006064820152608401610795565b610a328161153c565b60408051600080825260208201909252610a4e91839190611544565b50565b6000610a5b611748565b610a6584846117e7565b9050610a70826118a0565b9392505050565b7f00000000000000000000000000000000000000000000000000000000000000006040517fb760faf900000000000000000000000000000000000000000000000000000000815230600482015273ffffffffffffffffffffffffffffffffffffffff919091169063b760faf99034906024016000604051808303818588803b158015610b0257600080fd5b505af1158015610845573d6000803e3d6000fd5b610b1e61190b565b7f00000000000000000000000000000000000000000000000000000000000000006040517f205c287800000000000000000000000000000000000000000000000000000000815273ffffffffffffffffffffffffffffffffffffffff848116600483015260248201849052919091169063205c287890604401600060405180830381600087803b158015610bb157600080fd5b505af1158015610bc5573d6000803e3d6000fd5b505050505050565b73ffffffffffffffffffffffffffffffffffffffff7f0000000000000000000000000000000000000000000000000000000000000000163003610c92576040517f08c379a000000000000000000000000000000000000000000000000000000000815260206004820152602c60248201527f46756e6374696f6e206d7573742062652063616c6c6564207468726f7567682060448201527f64656c656761746563616c6c00000000000000000000000000000000000000006064820152608401610795565b7f000000000000000000000000000000000000000000000000000000000000000073ffffffffffffffffffffffffffffffffffffffff16610d077f360894a13ba1a3210667c828492db98dca3e2076cc3735a920a3ca505d382bbc5473ffffffffffffffffffffffffffffffffffffffff1690565b73ffffffffffffffffffffffffffffffffffffffff1614610daa576040517f08c379a000000000000000000000000000000000000000000000000000000000815260206004820152602c60248201527f46756e6374696f6e206d7573742062652063616c6c6564207468726f7567682060448201527f6163746976652070726f787900000000000000000000000000000000000000006064820152608401610795565b610db38261153c565b610dbf82826001611544565b5050565b60003073ffffffffffffffffffffffffffffffffffffffff7f00000000000000000000000000000000000000000000000000000000000000001614610e8a576040517f08c379a000000000000000000000000000000000000000000000000000000000815260206004820152603860248201527f555550535570677261646561626c653a206d757374206e6f742062652063616c60448201527f6c6564207468726f7567682064656c656761746563616c6c00000000000000006064820152608401610795565b507f360894a13ba1a3210667c828492db98dca3e2076cc3735a920a3ca505d382bbc90565b60018181548110610ec257610ec2613209565b9060005260206000209060060201600501544211610f3c576040517f08c379a000000000000000000000000000000000000000000000000000000000815260206004820152601960248201527f4c6f616e206475726174696f6e206e6f742072656163686564000000000000006044820152606401610795565b610a4e8161199c565b60606001805480602002602001604051908101604052809291908181526020016000905b82821015610fec5760008481526020908190206040805160c081018252600686029092018054835260018082015473ffffffffffffffffffffffffffffffffffffffff9081168587015260028301549385019390935260038201549092166060840152600481015460808401526005015460a08301529083529092019101610f69565b50505050905090565b610ffd61137d565b61103e848484848080601f01602080910402602001604051908101604052809392919081815260200183838082843760009201919091525061144692505050565b50505050565b61104c61190b565b6001548110610f3c576040517f08c379a000000000000000000000000000000000000000000000000000000000815260206004820152600d60248201527f696e76616c696420696e646578000000000000000000000000000000000000006044820152606401610795565b6040517f70a0823100000000000000000000000000000000000000000000000000000000815230600482015260009073ffffffffffffffffffffffffffffffffffffffff7f000000000000000000000000000000000000000000000000000000000000000016906370a08231906024015b602060405180830381865afa158015611145573d6000803e3d6000fd5b505050506040513d601f19601f820116820180604052508101906111699190613304565b905090565b600054610100900460ff161580801561118e5750600054600160ff909116105b806111a85750303b1580156111a8575060005460ff166001145b611234576040517f08c379a000000000000000000000000000000000000000000000000000000000815260206004820152602e60248201527f496e697469616c697a61626c653a20636f6e747261637420697320616c72656160448201527f647920696e697469616c697a65640000000000000000000000000000000000006064820152608401610795565b600080547fffffffffffffffffffffffffffffffffffffffffffffffffffffffffffffff00166001179055801561129257600080547fffffffffffffffffffffffffffffffffffffffffffffffffffffffffffff00ff166101001790555b61129b82611b73565b8015610dbf57600080547fffffffffffffffffffffffffffffffffffffffffffffffffffffffffffff00ff169055604051600181527f7f26b83ff96e1f2b6a682f133852f6798a09c465da95921460cefb38474024989060200160405180910390a15050565b6040517f35567e1a0000000000000000000000000000000000000000000000000000000081523060048201526000602482018190529073ffffffffffffffffffffffffffffffffffffffff7f000000000000000000000000000000000000000000000000000000000000000016906335567e1a90604401611128565b3373ffffffffffffffffffffffffffffffffffffffff7f00000000000000000000000000000000000000000000000000000000000000001614806113de575060005462010000900473ffffffffffffffffffffffffffffffffffffffff1633145b611444576040517f08c379a000000000000000000000000000000000000000000000000000000000815260206004820181905260248201527f6163636f756e743a206e6f74204f776e6572206f7220456e747279506f696e746044820152606401610795565b565b6114508382611c12565b6114b6576040517f08c379a000000000000000000000000000000000000000000000000000000000815260206004820152601660248201527f556e617574686f72697a6564206f7065726174696f6e000000000000000000006044820152606401610795565b6114bf81611fee565b6000808473ffffffffffffffffffffffffffffffffffffffff1684846040516114e89190613349565b60006040518083038185875af1925050503d8060008114611525576040519150601f19603f3d011682016040523d82523d6000602084013e61152a565b606091505b50915091508161084557805160208201fd5b610a4e61190b565b7f4910fdfa16fed3260ed0e7147f7cc6da11a60208b5b9406d12a635614ffd91435460ff161561157c576115778361213c565b505050565b8273ffffffffffffffffffffffffffffffffffffffff166352d1902d6040518163ffffffff1660e01b8152600401602060405180830381865afa925050508015611601575060408051601f3d9081017fffffffffffffffffffffffffffffffffffffffffffffffffffffffffffffffe01682019092526115fe91810190613304565b60015b61168d576040517f08c379a000000000000000000000000000000000000000000000000000000000815260206004820152602e60248201527f45524331393637557067726164653a206e657720696d706c656d656e7461746960448201527f6f6e206973206e6f7420555550530000000000000000000000000000000000006064820152608401610795565b7f360894a13ba1a3210667c828492db98dca3e2076cc3735a920a3ca505d382bbc811461173c576040517f08c379a000000000000000000000000000000000000000000000000000000000815260206004820152602960248201527f45524331393637557067726164653a20756e737570706f727465642070726f7860448201527f6961626c655555494400000000000000000000000000000000000000000000006064820152608401610795565b50611577838383612246565b3373ffffffffffffffffffffffffffffffffffffffff7f00000000000000000000000000000000000000000000000000000000000000001614611444576040517f08c379a000000000000000000000000000000000000000000000000000000000815260206004820152601c60248201527f6163636f756e743a206e6f742066726f6d20456e747279506f696e74000000006044820152606401610795565b7f19457468657265756d205369676e6564204d6573736167653a0a3332000000006000908152601c829052603c8120611864611827610140860186613238565b8080601f016020809104026020016040519081016040528093929190818152602001838380828437600092019190915250859392505061226b9050565b60005462010000900473ffffffffffffffffffffffffffffffffffffffff908116911614611896576001915050610722565b5060009392505050565b8015610a4e5760405160009033907fffffffffffffffffffffffffffffffffffffffffffffffffffffffffffffffff90849084818181858888f193505050503d8060008114610845576040519150601f19603f3d011682016040523d82523d6000602084013e610845565b60005462010000900473ffffffffffffffffffffffffffffffffffffffff1633148061193657503330145b611444576040517f08c379a000000000000000000000000000000000000000000000000000000000815260206004820152600a60248201527f6f6e6c79206f776e6572000000000000000000000000000000000000000000006044820152606401610795565b6000600182815481106119b1576119b1613209565b6000918252602082206001600690920201810154815473ffffffffffffffffffffffffffffffffffffffff9091169350849081106119f1576119f1613209565b906000526020600020906006020160020154905060008290508073ffffffffffffffffffffffffffffffffffffffff166323b872dd3060018781548110611a3a57611a3a613209565b600091825260209091206006909102016003015460405160e084901b7fffffffff0000000000000000000000000000000000000000000000000000000016815273ffffffffffffffffffffffffffffffffffffffff92831660048201529116602482015260448101859052606401600060405180830381600087803b158015611ac257600080fd5b505af1158015611ad6573d6000803e3d6000fd5b50505050611ae38461228f565b73ffffffffffffffffffffffffffffffffffffffff83166000908152600360205260408120805491611b1483613365565b90915550505073ffffffffffffffffffffffffffffffffffffffff90911660009081526004602090815260408083209383529290522080547fffffffffffffffffffffffffffffffffffffffffffffffffffffffffffffff0016905550565b600080547fffffffffffffffffffff0000000000000000000000000000000000000000ffff166201000073ffffffffffffffffffffffffffffffffffffffff8481168202929092178084556040519190048216927f0000000000000000000000000000000000000000000000000000000000000000909216917f47e55c76e7a6f1fd8996a1da8008c1ea29699cca35e7bcd057f2dec313b6e5de91a350565b6000600482511015611c2657506001610722565b6000611c33836020015190565b60408051808201909152601f81527f736574417070726f76616c466f72416c6c28616464726573732c626f6f6c290060209091015290507f5dd34b9b000000000000000000000000000000000000000000000000000000007fffffffff00000000000000000000000000000000000000000000000000000000821601611d8b5773ffffffffffffffffffffffffffffffffffffffff841660009081526003602052604090205415611ce8576000915050610722565b60448301518015611d2e5773ffffffffffffffffffffffffffffffffffffffff85166000908152600560205260408120805491611d24836132cc565b9190505550611d80565b602484015181611d7e57611d428682612428565b15611d7e5773ffffffffffffffffffffffffffffffffffffffff86166000908152600560205260408120805491611d7883613365565b91905055505b505b600192505050610722565b6040518060600160405280602581526020016134b860259139805190602001207bffffffffffffffffffffffffffffffffffffffffffffffffffffffff1916817bffffffffffffffffffffffffffffffffffffffffffffffffffffffff19161480611e5257506040518060600160405280602981526020016134dd60299139805190602001207bffffffffffffffffffffffffffffffffffffffffffffffffffffffff1916817bffffffffffffffffffffffffffffffffffffffffffffffffffffffff1916145b80611eb957506040518060600160405280602f815260200161352d602f9139805190602001207bffffffffffffffffffffffffffffffffffffffffffffffffffffffff1916817bffffffffffffffffffffffffffffffffffffffffffffffffffffffff1916145b15611f2657602483015160648401513073ffffffffffffffffffffffffffffffffffffffff831603611f235773ffffffffffffffffffffffffffffffffffffffff86166000908152600460209081526040808320938352929052205460ff16159250610722915050565b50505b60408051808201909152601881527f617070726f766528616464726573732c75696e743235362900000000000000006020909101527ff6a1584d000000000000000000000000000000000000000000000000000000007fffffffff00000000000000000000000000000000000000000000000000000000821601611fe4575050604481015173ffffffffffffffffffffffffffffffffffffffff83166000908152600460209081526040808320938352929052205460ff1615610722565b5060019392505050565b6000611ffb826020015190565b6040805180820190915260208082527f72656e744e465428616464726573732c75696e743235362c75696e743235362991015290507f2975c901000000000000000000000000000000000000000000000000000000007fffffffff00000000000000000000000000000000000000000000000000000000821601610dbf576024820151604483015160648401516040517f6352211e00000000000000000000000000000000000000000000000000000000815260009190849073ffffffffffffffffffffffffffffffffffffffff821690636352211e906120e490879060040190815260200190565b602060405180830381865afa158015612101573d6000803e3d6000fd5b505050506040513d601f19601f82011682018060405250810190612125919061339a565b9250612133858585856124cb565b50505050505050565b73ffffffffffffffffffffffffffffffffffffffff81163b6121e0576040517f08c379a000000000000000000000000000000000000000000000000000000000815260206004820152602d60248201527f455243313936373a206e657720696d706c656d656e746174696f6e206973206e60448201527f6f74206120636f6e7472616374000000000000000000000000000000000000006064820152608401610795565b7f360894a13ba1a3210667c828492db98dca3e2076cc3735a920a3ca505d382bbc80547fffffffffffffffffffffffff00000000000000000000000000000000000000001673ffffffffffffffffffffffffffffffffffffffff92909216919091179055565b61224f8361270d565b60008251118061225c5750805b156115775761103e838361275a565b600080600061227a858561277f565b91509150612287816127c4565b509392505050565b6001805460009161229f916133b7565b9050600181815481106122b4576122b4613209565b9060005260206000209060060201600183815481106122d5576122d5613209565b600091825260209091208254600690920201908155600180830154818301805473ffffffffffffffffffffffffffffffffffffffff9283167fffffffffffffffffffffffff00000000000000000000000000000000000000009182161790915560028086015490850155600380860154908501805491909316911617905560048084015490830155600592830154929091019190915580548391908290811061238057612380613209565b600091825260209091206006909102015560018054806123a2576123a26133ce565b60008281526020812060067fffffffffffffffffffffffffffffffffffffffffffffffffffffffffffffffff909301928302018181556001810180547fffffffffffffffffffffffff0000000000000000000000000000000000000000908116909155600282018390556003820180549091169055600481018290556005015590555050565b6040517fe985e9c500000000000000000000000000000000000000000000000000000000815230600482015273ffffffffffffffffffffffffffffffffffffffff8281166024830152600091849182169063e985e9c590604401602060405180830381865afa15801561249f573d6000803e3d6000fd5b505050506040513d601f19601f820116820180604052508101906124c391906133fd565b949350505050565b60006040518060c0016040528060018054905081526020018673ffffffffffffffffffffffffffffffffffffffff1681526020018581526020018473ffffffffffffffffffffffffffffffffffffffff1681526020014281526020018342612533919061341f565b9052600180548082018255600091825282517fb10e2d527612073b26eecdfd717e6a320cf44b4afac2b0732d9fcbe2b7fa0cf66006909202918201556020808401517fb10e2d527612073b26eecdfd717e6a320cf44b4afac2b0732d9fcbe2b7fa0cf7830180547fffffffffffffffffffffffff000000000000000000000000000000000000000090811673ffffffffffffffffffffffffffffffffffffffff938416179091556040808701517fb10e2d527612073b26eecdfd717e6a320cf44b4afac2b0732d9fcbe2b7fa0cf886015560608701517fb10e2d527612073b26eecdfd717e6a320cf44b4afac2b0732d9fcbe2b7fa0cf9860180549093169084161790915560808601517fb10e2d527612073b26eecdfd717e6a320cf44b4afac2b0732d9fcbe2b7fa0cfa85015560a08601517fb10e2d527612073b26eecdfd717e6a320cf44b4afac2b0732d9fcbe2b7fa0cfb90940193909355891683526003905281208054929350906126a7836132cc565b90915550505073ffffffffffffffffffffffffffffffffffffffff90931660009081526004602090815260408083209483529390529190912080547fffffffffffffffffffffffffffffffffffffffffffffffffffffffffffffff001660011790555050565b6127168161213c565b60405173ffffffffffffffffffffffffffffffffffffffff8216907fbc7cd75a20ee27fd9adebab32041f755214dbc6bffa90cc0225b39da2e5c2d3b90600090a250565b6060610a70838360405180606001604052806027815260200161350660279139612977565b60008082516041036127b55760208301516040840151606085015160001a6127a9878285856129fc565b945094505050506127bd565b506000905060025b9250929050565b60008160048111156127d8576127d8613437565b036127e05750565b60018160048111156127f4576127f4613437565b0361285b576040517f08c379a000000000000000000000000000000000000000000000000000000000815260206004820152601860248201527f45434453413a20696e76616c6964207369676e617475726500000000000000006044820152606401610795565b600281600481111561286f5761286f613437565b036128d6576040517f08c379a000000000000000000000000000000000000000000000000000000000815260206004820152601f60248201527f45434453413a20696e76616c6964207369676e6174757265206c656e677468006044820152606401610795565b60038160048111156128ea576128ea613437565b03610a4e576040517f08c379a000000000000000000000000000000000000000000000000000000000815260206004820152602260248201527f45434453413a20696e76616c6964207369676e6174757265202773272076616c60448201527f75650000000000000000000000000000000000000000000000000000000000006064820152608401610795565b60606000808573ffffffffffffffffffffffffffffffffffffffff16856040516129a19190613349565b600060405180830381855af49150503d80600081146129dc576040519150601f19603f3d011682016040523d82523d6000602084013e6129e1565b606091505b50915091506129f286838387612aeb565b9695505050505050565b6000807f7fffffffffffffffffffffffffffffff5d576e7357a4501ddfe92f46681b20a0831115612a335750600090506003612ae2565b6040805160008082526020820180845289905260ff881692820192909252606081018690526080810185905260019060a0016020604051602081039080840390855afa158015612a87573d6000803e3d6000fd5b50506040517fffffffffffffffffffffffffffffffffffffffffffffffffffffffffffffffe0015191505073ffffffffffffffffffffffffffffffffffffffff8116612adb57600060019250925050612ae2565b9150600090505b94509492505050565b60608315612b81578251600003612b7a5773ffffffffffffffffffffffffffffffffffffffff85163b612b7a576040517f08c379a000000000000000000000000000000000000000000000000000000000815260206004820152601d60248201527f416464726573733a2063616c6c20746f206e6f6e2d636f6e74726163740000006044820152606401610795565b50816124c3565b6124c38383815115612b965781518083602001fd5b806040517f08c379a00000000000000000000000000000000000000000000000000000000081526004016107959190613466565b73ffffffffffffffffffffffffffffffffffffffff81168114610a4e57600080fd5b60008083601f840112612bfe57600080fd5b50813567ffffffffffffffff811115612c1657600080fd5b6020830191508360208285010111156127bd57600080fd5b60008060008060008060008060c0898b031215612c4a57600080fd5b8835612c5581612bca565b97506020890135612c6581612bca565b96506040890135612c7581612bca565b955060608901359450608089013567ffffffffffffffff80821115612c9957600080fd5b612ca58c838d01612bec565b909650945060a08b0135915080821115612cbe57600080fd5b50612ccb8b828c01612bec565b999c989b5096995094979396929594505050565b600060208284031215612cf157600080fd5b81357fffffffff0000000000000000000000000000000000000000000000000000000081168114610a7057600080fd5b60008060408385031215612d3457600080fd5b8235612d3f81612bca565b946020939093013593505050565b600080600080600060808688031215612d6557600080fd5b8535612d7081612bca565b94506020860135612d8081612bca565b935060408601359250606086013567ffffffffffffffff811115612da357600080fd5b612daf88828901612bec565b969995985093965092949392505050565b60008083601f840112612dd257600080fd5b50813567ffffffffffffffff811115612dea57600080fd5b6020830191508360208260051b85010111156127bd57600080fd5b60008060008060408587031215612e1b57600080fd5b843567ffffffffffffffff80821115612e3357600080fd5b612e3f88838901612dc0565b90965094506020870135915080821115612e5857600080fd5b50612e6587828801612dc0565b95989497509550505050565b600060208284031215612e8357600080fd5b8135610a7081612bca565b600080600060608486031215612ea357600080fd5b833567ffffffffffffffff811115612eba57600080fd5b84016101608187031215612ecd57600080fd5b95602085013595506040909401359392505050565b7f4e487b7100000000000000000000000000000000000000000000000000000000600052604160045260246000fd5b60008060408385031215612f2457600080fd5b8235612f2f81612bca565b9150602083013567ffffffffffffffff80821115612f4c57600080fd5b818501915085601f830112612f6057600080fd5b813581811115612f7257612f72612ee2565b604051601f82017fffffffffffffffffffffffffffffffffffffffffffffffffffffffffffffffe0908116603f01168101908382118183101715612fb857612fb8612ee2565b81604052828152886020848701011115612fd157600080fd5b8260208601602083013760006020848301015280955050505050509250929050565b60006020828403121561300557600080fd5b5035919050565b602080825282518282018190526000919060409081850190868401855b82811015613092578151805185528681015173ffffffffffffffffffffffffffffffffffffffff908116888701528682015187870152606080830151909116908601526080808201519086015260a0908101519085015260c09093019290850190600101613029565b5091979650505050505050565b600080600080606085870312156130b557600080fd5b84356130c081612bca565b935060208501359250604085013567ffffffffffffffff8111156130e357600080fd5b612e6587828801612bec565b60008060008060008060008060a0898b03121561310b57600080fd5b883561311681612bca565b9750602089013561312681612bca565b9650604089013567ffffffffffffffff8082111561314357600080fd5b61314f8c838d01612dc0565b909850965060608b013591508082111561316857600080fd5b6131748c838d01612dc0565b909650945060808b0135915080821115612cbe57600080fd5b60008060008060008060a087890312156131a657600080fd5b86356131b181612bca565b955060208701356131c181612bca565b94506040870135935060608701359250608087013567ffffffffffffffff8111156131eb57600080fd5b6131f789828a01612bec565b979a9699509497509295939492505050565b7f4e487b7100000000000000000000000000000000000000000000000000000000600052603260045260246000fd5b60008083357fffffffffffffffffffffffffffffffffffffffffffffffffffffffffffffffe184360301811261326d57600080fd5b83018035915067ffffffffffffffff82111561328857600080fd5b6020019150368190038213156127bd57600080fd5b7f4e487b7100000000000000000000000000000000000000000000000000000000600052601160045260246000fd5b60007fffffffffffffffffffffffffffffffffffffffffffffffffffffffffffffffff82036132fd576132fd61329d565b5060010190565b60006020828403121561331657600080fd5b5051919050565b60005b83811015613338578181015183820152602001613320565b8381111561103e5750506000910152565b6000825161335b81846020870161331d565b9190910192915050565b6000816133745761337461329d565b507fffffffffffffffffffffffffffffffffffffffffffffffffffffffffffffffff0190565b6000602082840312156133ac57600080fd5b8151610a7081612bca565b6000828210156133c9576133c961329d565b500390565b7f4e487b7100000000000000000000000000000000000000000000000000000000600052603160045260246000fd5b60006020828403121561340f57600080fd5b81518015158114610a7057600080fd5b600082198211156134325761343261329d565b500190565b7f4e487b7100000000000000000000000000000000000000000000000000000000600052602160045260246000fd5b602081526000825180602084015261348581604085016020870161331d565b601f017fffffffffffffffffffffffffffffffffffffffffffffffffffffffffffffffe016919091016040019291505056fe7472616e7366657246726f6d28616464726573732c616464726573732c75696e7432353629736166655472616e7366657246726f6d28616464726573732c616464726573732c75696e7432353629416464726573733a206c6f772d6c6576656c2064656c65676174652063616c6c206661696c6564736166655472616e7366657246726f6d28616464726573732c616464726573732c75696e743235362c627974657329a264697066735822122037c3b88cbf3e9f4255fa13a63872554d9bce1df287814d3d8b172b4c49860fbd64736f6c634300080f0033",
  "linkReferences": {},
  "deployedLinkReferences": {}
}