{
  "address": "0x20e04261AcD7D8602c27f5C3856e0eE7ED2C85Ff",
  "abi": [
    {
      "inputs": [
        {
          "internalType": "contract IEntryPoint",
          "name": "_entryPoint",
          "type": "address"
        }
      ],
      "stateMutability": "nonpayable",
      "type": "constructor"
    },
    {
      "anonymous": false,
      "inputs": [
        {
          "indexed": true,
          "internalType": "address",
          "name": "owner",
          "type": "address"
        },
        {
          "indexed": true,
          "internalType": "address",
          "name": "account",
          "type": "address"
        }
      ],
      "name": "SmartAccountCreated",
      "type": "event"
    },
    {
      "inputs": [],
      "name": "accountImplementation",
      "outputs": [
        {
          "internalType": "contract SmartAccount",
          "name": "",
          "type": "address"
        }
      ],
      "stateMutability": "view",
      "type": "function"
    },
    {
      "inputs": [
        {
          "internalType": "address",
          "name": "owner",
          "type": "address"
        },
        {
          "internalType": "uint256",
          "name": "salt",
          "type": "uint256"
        }
      ],
      "name": "createAccount",
      "outputs": [
        {
          "internalType": "contract SmartAccount",
          "name": "ret",
          "type": "address"
        }
      ],
      "stateMutability": "nonpayable",
      "type": "function"
    },
    {
      "inputs": [
        {
          "internalType": "address",
          "name": "owner",
          "type": "address"
        },
        {
          "internalType": "uint256",
          "name": "salt",
          "type": "uint256"
        }
      ],
      "name": "getAddress",
      "outputs": [
        {
          "internalType": "address",
          "name": "",
          "type": "address"
        }
      ],
      "stateMutability": "view",
      "type": "function"
    },
    {
      "inputs": [
        {
          "internalType": "address",
          "name": "account",
          "type": "address"
        }
      ],
      "name": "isSmartAccount",
      "outputs": [
        {
          "internalType": "bool",
          "name": "",
          "type": "bool"
        }
      ],
      "stateMutability": "view",
      "type": "function"
    },
    {
      "inputs": [
        {
          "internalType": "address",
          "name": "entryPoint",
          "type": "address"
        },
        {
          "internalType": "uint32",
          "name": "unstakeDelaySec",
          "type": "uint32"
        }
      ],
      "name": "stake",
      "outputs": [],
      "stateMutability": "payable",
      "type": "function"
    },
    {
      "inputs": [
        {
          "internalType": "address",
          "name": "entryPoint",
          "type": "address"
        }
      ],
      "name": "unlockStake",
      "outputs": [],
      "stateMutability": "nonpayable",
      "type": "function"
    }
  ],
  "transactionHash": "0x6e7d8dc7a46ad109c92289e6fc88db3045dda1a882e14f2328dda7ba3601d463",
  "args": [
    "0x5FF137D4b0FDCD49DcA30c7CF57E578a026d2789"
  ],
  "numDeployments": 2,
  "solcInputHash": "50ff48e39e90fbdc21259d495728ee43",
  "bytecode": "0x60a060405234801561001057600080fd5b50604051614c94380380614c9483398101604081905261002f91610088565b8060405161003c9061007b565b6001600160a01b039091168152602001604051809103906000f080158015610068573d6000803e3d6000fd5b506001600160a01b0316608052506100b8565b613a4d8061124783390190565b60006020828403121561009a57600080fd5b81516001600160a01b03811681146100b157600080fd5b9392505050565b6080516111676100e0600039600081816086015281816103c3015261050f01526111676000f3fe6080604052600436106200006d5760003560e01c80635fbfb9cf11620000485780635fbfb9cf14620001545780638cb84e181462000179578063c7e55f3e146200019e57600080fd5b806311464fbe14620000725780634a1ce59914620000d25780635e07a6e614620000f9575b600080fd5b3480156200007f57600080fd5b50620000a87f000000000000000000000000000000000000000000000000000000000000000081565b60405173ffffffffffffffffffffffffffffffffffffffff90911681526020015b60405180910390f35b348015620000df57600080fd5b50620000f7620000f1366004620007ed565b620001b5565b005b3480156200010657600080fd5b506200014362000118366004620007ed565b73ffffffffffffffffffffffffffffffffffffffff1660009081526020819052604090205460ff1690565b6040519015158152602001620000c9565b3480156200016157600080fd5b50620000a8620001733660046200080b565b620002ed565b3480156200018657600080fd5b50620000a8620001983660046200080b565b620004a2565b620000f7620001af36600462000838565b6200061a565b60408051600481526024810182526020810180517bffffffffffffffffffffffffffffffffffffffffffffffffffffffff167fbb9fe6bf00000000000000000000000000000000000000000000000000000000179052905160009173ffffffffffffffffffffffffffffffffffffffff841691620002349190620008af565b6000604051808303816000865af19150503d806000811462000273576040519150601f19603f3d011682016040523d82523d6000602084013e62000278565b606091505b5050905080620002e9576040517f08c379a000000000000000000000000000000000000000000000000000000000815260206004820152601860248201527f756e6c6f636b207374616b652063616c6c206661696c6564000000000000000060448201526064015b60405180910390fd5b5050565b600080620002fc8484620004a2565b905073ffffffffffffffffffffffffffffffffffffffff81163b801562000326575090506200049c565b73ffffffffffffffffffffffffffffffffffffffff80831660008181526020819052604080822080547fffffffffffffffffffffffffffffffffffffffffffffffffffffffffffffff001660011790555191928816917f11f81d728010658858b98bd3e5ece1f1a7a9caf6fb57f3742794cfc1c1e8aa909190a360405173ffffffffffffffffffffffffffffffffffffffff8616602482015284907f000000000000000000000000000000000000000000000000000000000000000090604401604080517fffffffffffffffffffffffffffffffffffffffffffffffffffffffffffffffe08184030181529181526020820180517bffffffffffffffffffffffffffffffffffffffffffffffffffffffff167fc4d66de800000000000000000000000000000000000000000000000000000000179052516200046890620007b5565b62000475929190620008cd565b8190604051809103906000f590508015801562000496573d6000803e3d6000fd5b50925050505b92915050565b6000620006138260001b60405180602001620004be90620007b5565b7fffffffffffffffffffffffffffffffffffffffffffffffffffffffffffffffe082820381018352601f90910116604081905273ffffffffffffffffffffffffffffffffffffffff871660248201527f000000000000000000000000000000000000000000000000000000000000000090604401604080517fffffffffffffffffffffffffffffffffffffffffffffffffffffffffffffffe0818403018152918152602080830180517bffffffffffffffffffffffffffffffffffffffffffffffffffffffff167fc4d66de8000000000000000000000000000000000000000000000000000000001790529051620005b993929101620008cd565b604080517fffffffffffffffffffffffffffffffffffffffffffffffffffffffffffffffe081840301815290829052620005f792916020016200093d565b6040516020818303038152906040528051906020012062000782565b9392505050565b60405163ffffffff8216602482015260009073ffffffffffffffffffffffffffffffffffffffff8416903490604401604080517fffffffffffffffffffffffffffffffffffffffffffffffffffffffffffffffe08184030181529181526020820180517bffffffffffffffffffffffffffffffffffffffffffffffffffffffff167f0396cb600000000000000000000000000000000000000000000000000000000017905251620006cc9190620008af565b60006040518083038185875af1925050503d80600081146200070b576040519150601f19603f3d011682016040523d82523d6000602084013e62000710565b606091505b50509050806200077d576040517f08c379a000000000000000000000000000000000000000000000000000000000815260206004820152601160248201527f7374616b652063616c6c206661696c65640000000000000000000000000000006044820152606401620002e0565b505050565b6000620006138383306000604051836040820152846020820152828152600b8101905060ff815360559020949350505050565b6107c1806200097183390190565b803573ffffffffffffffffffffffffffffffffffffffff81168114620007e857600080fd5b919050565b6000602082840312156200080057600080fd5b6200061382620007c3565b600080604083850312156200081f57600080fd5b6200082a83620007c3565b946020939093013593505050565b600080604083850312156200084c57600080fd5b6200085783620007c3565b9150602083013563ffffffff811681146200087157600080fd5b809150509250929050565b60005b83811015620008995781810151838201526020016200087f565b83811115620008a9576000848401525b50505050565b60008251620008c38184602087016200087c565b9190910192915050565b73ffffffffffffffffffffffffffffffffffffffff8316815260406020820152600082518060408401526200090a8160608501602087016200087c565b601f017fffffffffffffffffffffffffffffffffffffffffffffffffffffffffffffffe016919091016060019392505050565b60008351620009518184602088016200087c565b835190830190620009678183602088016200087c565b0194935050505056fe60806040526040516107c13803806107c183398101604081905261002291610321565b61002e82826000610035565b505061043e565b61003e8361006b565b60008251118061004b5750805b156100665761006483836100ab60201b6100291760201c565b505b505050565b610074816100d7565b6040516001600160a01b038216907fbc7cd75a20ee27fd9adebab32041f755214dbc6bffa90cc0225b39da2e5c2d3b90600090a250565b60606100d0838360405180606001604052806027815260200161079a602791396101a9565b9392505050565b6100ea8161022260201b6100551760201c565b6101515760405162461bcd60e51b815260206004820152602d60248201527f455243313936373a206e657720696d706c656d656e746174696f6e206973206e60448201526c1bdd08184818dbdb9d1c9858dd609a1b60648201526084015b60405180910390fd5b806101887f360894a13ba1a3210667c828492db98dca3e2076cc3735a920a3ca505d382bbc60001b61023160201b6100711760201c565b80546001600160a01b0319166001600160a01b039290921691909117905550565b6060600080856001600160a01b0316856040516101c691906103ef565b600060405180830381855af49150503d8060008114610201576040519150601f19603f3d011682016040523d82523d6000602084013e610206565b606091505b50909250905061021886838387610234565b9695505050505050565b6001600160a01b03163b151590565b90565b606083156102a357825160000361029c576001600160a01b0385163b61029c5760405162461bcd60e51b815260206004820152601d60248201527f416464726573733a2063616c6c20746f206e6f6e2d636f6e74726163740000006044820152606401610148565b50816102ad565b6102ad83836102b5565b949350505050565b8151156102c55781518083602001fd5b8060405162461bcd60e51b8152600401610148919061040b565b634e487b7160e01b600052604160045260246000fd5b60005b838110156103105781810151838201526020016102f8565b838111156100645750506000910152565b6000806040838503121561033457600080fd5b82516001600160a01b038116811461034b57600080fd5b60208401519092506001600160401b038082111561036857600080fd5b818501915085601f83011261037c57600080fd5b81518181111561038e5761038e6102df565b604051601f8201601f19908116603f011681019083821181831017156103b6576103b66102df565b816040528281528860208487010111156103cf57600080fd5b6103e08360208301602088016102f5565b80955050505050509250929050565b600082516104018184602087016102f5565b9190910192915050565b602081526000825180602084015261042a8160408501602087016102f5565b601f01601f19169190910160400192915050565b61034d8061044d6000396000f3fe60806040523661001357610011610017565b005b6100115b610027610022610074565b6100b9565b565b606061004e83836040518060600160405280602781526020016102f1602791396100dd565b9392505050565b73ffffffffffffffffffffffffffffffffffffffff163b151590565b90565b60006100b47f360894a13ba1a3210667c828492db98dca3e2076cc3735a920a3ca505d382bbc5473ffffffffffffffffffffffffffffffffffffffff1690565b905090565b3660008037600080366000845af43d6000803e8080156100d8573d6000f35b3d6000fd5b60606000808573ffffffffffffffffffffffffffffffffffffffff16856040516101079190610283565b600060405180830381855af49150503d8060008114610142576040519150601f19603f3d011682016040523d82523d6000602084013e610147565b606091505b509150915061015886838387610162565b9695505050505050565b606083156101fd5782516000036101f65773ffffffffffffffffffffffffffffffffffffffff85163b6101f6576040517f08c379a000000000000000000000000000000000000000000000000000000000815260206004820152601d60248201527f416464726573733a2063616c6c20746f206e6f6e2d636f6e747261637400000060448201526064015b60405180910390fd5b5081610207565b610207838361020f565b949350505050565b81511561021f5781518083602001fd5b806040517f08c379a00000000000000000000000000000000000000000000000000000000081526004016101ed919061029f565b60005b8381101561026e578181015183820152602001610256565b8381111561027d576000848401525b50505050565b60008251610295818460208701610253565b9190910192915050565b60208152600082518060208401526102be816040850160208701610253565b601f017fffffffffffffffffffffffffffffffffffffffffffffffffffffffffffffffe016919091016040019291505056fe416464726573733a206c6f772d6c6576656c2064656c65676174652063616c6c206661696c6564a26469706673582212207206d121ffa3833c53409418e4fa745480d0e85b53510553873d6d68cc9bcdb864736f6c634300080f0033416464726573733a206c6f772d6c6576656c2064656c65676174652063616c6c206661696c6564a26469706673582212201b6aff32aee8757a8c0655ce5fd39a18faa4e15e624a325632d8eb433f35161f64736f6c634300080f003360c0604052306080523480156200001557600080fd5b5060405162003a4d38038062003a4d833981016040819052620000389162000262565b6001600160a01b03811660a0526200004f620001a1565b506040805160c081018252600080825260208201818152928201818152606083018281526080840183815260a08501848152600180548082018255955294517fb10e2d527612073b26eecdfd717e6a320cf44b4afac2b0732d9fcbe2b7fa0cf660069095029485015594517fb10e2d527612073b26eecdfd717e6a320cf44b4afac2b0732d9fcbe2b7fa0cf7840180546001600160a01b03199081166001600160a01b039384161790915592517fb10e2d527612073b26eecdfd717e6a320cf44b4afac2b0732d9fcbe2b7fa0cf885015590517fb10e2d527612073b26eecdfd717e6a320cf44b4afac2b0732d9fcbe2b7fa0cf984018054909316911617905591517fb10e2d527612073b26eecdfd717e6a320cf44b4afac2b0732d9fcbe2b7fa0cfa830155517fb10e2d527612073b26eecdfd717e6a320cf44b4afac2b0732d9fcbe2b7fa0cfb9091015562000294565b600054610100900460ff16156200020e5760405162461bcd60e51b815260206004820152602760248201527f496e697469616c697a61626c653a20636f6e747261637420697320696e697469604482015266616c697a696e6760c81b606482015260840160405180910390fd5b60005460ff9081161462000260576000805460ff191660ff9081179091556040519081527f7f26b83ff96e1f2b6a682f133852f6798a09c465da95921460cefb38474024989060200160405180910390a15b565b6000602082840312156200027557600080fd5b81516001600160a01b03811681146200028d57600080fd5b9392505050565b60805160a05161374662000307600039600081816104ef01528181610aa401528181610b4b015281816111ed0152818161143e01528181611485015281816118500152611cb901526000818161088e0152818161093e01528181610cd401528181610d840152610ecd01526137466000f3fe6080604052600436106101a45760003560e01c80636be196d4116100e1578063b878d3881161008a578063c399ec8811610064578063c399ec88146105de578063c4d66de8146105f3578063d087d28814610613578063f23a6e611461062857600080fd5b8063b878d38814610533578063bc197c8114610576578063c2c959a8146105be57600080fd5b80638da5cb5b116100bb5780638da5cb5b14610488578063b0d691fe146104e0578063b61d27f61461051357600080fd5b80636be196d4146103d2578063890188971461042557806389e5900a1461044557600080fd5b80633a871cdd1161014e5780634e620c86116101285780634e620c86146103685780634f1ef2861461038857806352d1902d1461039b5780635ea5da20146103b057600080fd5b80633a871cdd146103205780634a58db19146103405780634d44560d1461034857600080fd5b8063150b7a021161017f578063150b7a021461026a57806318dfb3c7146102e05780633659cfe61461030057600080fd5b806223de29146101b057806301ffc9a7146101d757806312c86a6d1461020c57600080fd5b366101ab57005b600080fd5b3480156101bc57600080fd5b506101d56101cb366004612de3565b5050505050505050565b005b3480156101e357600080fd5b506101f76101f2366004612e94565b61066e565b60405190151581526020015b60405180910390f35b34801561021857600080fd5b5061025c610227366004612ed6565b73ffffffffffffffffffffffffffffffffffffffff919091166000908152600260209081526040808320938352929052205490565b604051908152602001610203565b34801561027657600080fd5b506102af610285366004612f02565b7f150b7a020000000000000000000000000000000000000000000000000000000095945050505050565b6040517fffffffff000000000000000000000000000000000000000000000000000000009091168152602001610203565b3480156102ec57600080fd5b506101d56102fb366004612fba565b610753565b34801561030c57600080fd5b506101d561031b366004613026565b610877565b34801561032c57600080fd5b5061025c61033b366004613043565b610a7c565b6101d5610aa2565b34801561035457600080fd5b506101d5610363366004612ed6565b610b41565b34801561037457600080fd5b5061025c610383366004612ed6565b610bf8565b6101d56103963660046130c6565b610cbd565b3480156103a757600080fd5b5061025c610eb3565b3480156103bc57600080fd5b506103c5610f9f565b60405161020391906131a8565b3480156103de57600080fd5b506101f76103ed366004612ed6565b73ffffffffffffffffffffffffffffffffffffffff919091166000908152600460209081526040808320938352929052205460ff1690565b34801561043157600080fd5b506101d561044036600461323b565b61104f565b34801561045157600080fd5b5061025c610460366004613026565b73ffffffffffffffffffffffffffffffffffffffff1660009081526005602052604090205490565b34801561049457600080fd5b506000546104bb9062010000900473ffffffffffffffffffffffffffffffffffffffff1681565b60405173ffffffffffffffffffffffffffffffffffffffff9091168152602001610203565b3480156104ec57600080fd5b507f00000000000000000000000000000000000000000000000000000000000000006104bb565b34801561051f57600080fd5b506101d561052e366004613254565b6110e5565b34801561053f57600080fd5b5061025c61054e366004613026565b73ffffffffffffffffffffffffffffffffffffffff1660009081526003602052604090205490565b34801561058257600080fd5b506102af6105913660046132a4565b7fbc197c810000000000000000000000000000000000000000000000000000000098975050505050505050565b3480156105ca57600080fd5b506101d56105d936600461323b565b611134565b3480156105ea57600080fd5b5061025c6111a7565b3480156105ff57600080fd5b506101d561060e366004613026565b61125e565b34801561061f57600080fd5b5061025c6113f1565b34801561063457600080fd5b506102af610643366004613342565b7ff23a6e61000000000000000000000000000000000000000000000000000000009695505050505050565b60007fffffffff0000000000000000000000000000000000000000000000000000000082167f150b7a0200000000000000000000000000000000000000000000000000000000148061070157507fffffffff0000000000000000000000000000000000000000000000000000000082167f4e2312e000000000000000000000000000000000000000000000000000000000145b8061074d57507fffffffff0000000000000000000000000000000000000000000000000000000082167f01ffc9a700000000000000000000000000000000000000000000000000000000145b92915050565b61075b61146d565b8281146107c9576040517f08c379a000000000000000000000000000000000000000000000000000000000815260206004820152601360248201527f77726f6e67206172726179206c656e677468730000000000000000000000000060448201526064015b60405180910390fd5b60005b838110156108705761085e8585838181106107e9576107e96133be565b90506020020160208101906107fe9190613026565b6000858585818110610812576108126133be565b905060200281019061082491906133ed565b8080601f01602080910402602001604051908101604052809392919081815260200183838082843760009201919091525061153692505050565b8061086881613481565b9150506107cc565b5050505050565b73ffffffffffffffffffffffffffffffffffffffff7f000000000000000000000000000000000000000000000000000000000000000016300361093c576040517f08c379a000000000000000000000000000000000000000000000000000000000815260206004820152602c60248201527f46756e6374696f6e206d7573742062652063616c6c6564207468726f7567682060448201527f64656c656761746563616c6c000000000000000000000000000000000000000060648201526084016107c0565b7f000000000000000000000000000000000000000000000000000000000000000073ffffffffffffffffffffffffffffffffffffffff166109b17f360894a13ba1a3210667c828492db98dca3e2076cc3735a920a3ca505d382bbc5473ffffffffffffffffffffffffffffffffffffffff1690565b73ffffffffffffffffffffffffffffffffffffffff1614610a54576040517f08c379a000000000000000000000000000000000000000000000000000000000815260206004820152602c60248201527f46756e6374696f6e206d7573742062652063616c6c6564207468726f7567682060448201527f6163746976652070726f7879000000000000000000000000000000000000000060648201526084016107c0565b610a5d8161162c565b60408051600080825260208201909252610a7991839190611634565b50565b6000610a86611838565b610a9084846118d7565b9050610a9b82611990565b9392505050565b7f00000000000000000000000000000000000000000000000000000000000000006040517fb760faf900000000000000000000000000000000000000000000000000000000815230600482015273ffffffffffffffffffffffffffffffffffffffff919091169063b760faf99034906024016000604051808303818588803b158015610b2d57600080fd5b505af1158015610870573d6000803e3d6000fd5b610b496119fb565b7f00000000000000000000000000000000000000000000000000000000000000006040517f205c287800000000000000000000000000000000000000000000000000000000815273ffffffffffffffffffffffffffffffffffffffff848116600483015260248201849052919091169063205c287890604401600060405180830381600087803b158015610bdc57600080fd5b505af1158015610bf0573d6000803e3d6000fd5b505050505050565b73ffffffffffffffffffffffffffffffffffffffff82166000908152600260209081526040808320848452909152812054600180548392908110610c3e57610c3e6133be565b60009182526020918290206040805160c081018252600690930290910180548352600181015473ffffffffffffffffffffffffffffffffffffffff90811694840194909452600281015491830191909152600381015490921660608201526004820154608082015260059091015460a090910181905291505092915050565b73ffffffffffffffffffffffffffffffffffffffff7f0000000000000000000000000000000000000000000000000000000000000000163003610d82576040517f08c379a000000000000000000000000000000000000000000000000000000000815260206004820152602c60248201527f46756e6374696f6e206d7573742062652063616c6c6564207468726f7567682060448201527f64656c656761746563616c6c000000000000000000000000000000000000000060648201526084016107c0565b7f000000000000000000000000000000000000000000000000000000000000000073ffffffffffffffffffffffffffffffffffffffff16610df77f360894a13ba1a3210667c828492db98dca3e2076cc3735a920a3ca505d382bbc5473ffffffffffffffffffffffffffffffffffffffff1690565b73ffffffffffffffffffffffffffffffffffffffff1614610e9a576040517f08c379a000000000000000000000000000000000000000000000000000000000815260206004820152602c60248201527f46756e6374696f6e206d7573742062652063616c6c6564207468726f7567682060448201527f6163746976652070726f7879000000000000000000000000000000000000000060648201526084016107c0565b610ea38261162c565b610eaf82826001611634565b5050565b60003073ffffffffffffffffffffffffffffffffffffffff7f00000000000000000000000000000000000000000000000000000000000000001614610f7a576040517f08c379a000000000000000000000000000000000000000000000000000000000815260206004820152603860248201527f555550535570677261646561626c653a206d757374206e6f742062652063616c60448201527f6c6564207468726f7567682064656c656761746563616c6c000000000000000060648201526084016107c0565b507f360894a13ba1a3210667c828492db98dca3e2076cc3735a920a3ca505d382bbc90565b60606001805480602002602001604051908101604052809291908181526020016000905b828210156110465760008481526020908190206040805160c081018252600686029092018054835260018082015473ffffffffffffffffffffffffffffffffffffffff9081168587015260028301549385019390935260038201549092166060840152600481015460808401526005015460a08301529083529092019101610fc3565b50505050905090565b60018181548110611062576110626133be565b90600052602060002090600602016005015442116110dc576040517f08c379a000000000000000000000000000000000000000000000000000000000815260206004820152601960248201527f4c6f616e206475726174696f6e206e6f7420726561636865640000000000000060448201526064016107c0565b610a7981611a8c565b6110ed61146d565b61112e848484848080601f01602080910402602001604051908101604052809392919081815260200183838082843760009201919091525061153692505050565b50505050565b61113c6119fb565b60015481106110dc576040517f08c379a000000000000000000000000000000000000000000000000000000000815260206004820152600d60248201527f696e76616c696420696e6465780000000000000000000000000000000000000060448201526064016107c0565b6040517f70a0823100000000000000000000000000000000000000000000000000000000815230600482015260009073ffffffffffffffffffffffffffffffffffffffff7f000000000000000000000000000000000000000000000000000000000000000016906370a08231906024015b602060405180830381865afa158015611235573d6000803e3d6000fd5b505050506040513d601f19601f8201168201806040525081019061125991906134b9565b905090565b600054610100900460ff161580801561127e5750600054600160ff909116105b806112985750303b158015611298575060005460ff166001145b611324576040517f08c379a000000000000000000000000000000000000000000000000000000000815260206004820152602e60248201527f496e697469616c697a61626c653a20636f6e747261637420697320616c72656160448201527f647920696e697469616c697a656400000000000000000000000000000000000060648201526084016107c0565b600080547fffffffffffffffffffffffffffffffffffffffffffffffffffffffffffffff00166001179055801561138257600080547fffffffffffffffffffffffffffffffffffffffffffffffffffffffffffff00ff166101001790555b61138b82611c63565b8015610eaf57600080547fffffffffffffffffffffffffffffffffffffffffffffffffffffffffffff00ff169055604051600181527f7f26b83ff96e1f2b6a682f133852f6798a09c465da95921460cefb38474024989060200160405180910390a15050565b6040517f35567e1a0000000000000000000000000000000000000000000000000000000081523060048201526000602482018190529073ffffffffffffffffffffffffffffffffffffffff7f000000000000000000000000000000000000000000000000000000000000000016906335567e1a90604401611218565b3373ffffffffffffffffffffffffffffffffffffffff7f00000000000000000000000000000000000000000000000000000000000000001614806114ce575060005462010000900473ffffffffffffffffffffffffffffffffffffffff1633145b611534576040517f08c379a000000000000000000000000000000000000000000000000000000000815260206004820181905260248201527f6163636f756e743a206e6f74204f776e6572206f7220456e747279506f696e7460448201526064016107c0565b565b6115408382611d02565b6115a6576040517f08c379a000000000000000000000000000000000000000000000000000000000815260206004820152601660248201527f556e617574686f72697a6564206f7065726174696f6e0000000000000000000060448201526064016107c0565b6115af816120de565b6000808473ffffffffffffffffffffffffffffffffffffffff1684846040516115d891906134fe565b60006040518083038185875af1925050503d8060008114611615576040519150601f19603f3d011682016040523d82523d6000602084013e61161a565b606091505b50915091508161087057805160208201fd5b610a796119fb565b7f4910fdfa16fed3260ed0e7147f7cc6da11a60208b5b9406d12a635614ffd91435460ff161561166c576116678361222c565b505050565b8273ffffffffffffffffffffffffffffffffffffffff166352d1902d6040518163ffffffff1660e01b8152600401602060405180830381865afa9250505080156116f1575060408051601f3d9081017fffffffffffffffffffffffffffffffffffffffffffffffffffffffffffffffe01682019092526116ee918101906134b9565b60015b61177d576040517f08c379a000000000000000000000000000000000000000000000000000000000815260206004820152602e60248201527f45524331393637557067726164653a206e657720696d706c656d656e7461746960448201527f6f6e206973206e6f74205555505300000000000000000000000000000000000060648201526084016107c0565b7f360894a13ba1a3210667c828492db98dca3e2076cc3735a920a3ca505d382bbc811461182c576040517f08c379a000000000000000000000000000000000000000000000000000000000815260206004820152602960248201527f45524331393637557067726164653a20756e737570706f727465642070726f7860448201527f6961626c6555554944000000000000000000000000000000000000000000000060648201526084016107c0565b50611667838383612336565b3373ffffffffffffffffffffffffffffffffffffffff7f00000000000000000000000000000000000000000000000000000000000000001614611534576040517f08c379a000000000000000000000000000000000000000000000000000000000815260206004820152601c60248201527f6163636f756e743a206e6f742066726f6d20456e747279506f696e740000000060448201526064016107c0565b7f19457468657265756d205369676e6564204d6573736167653a0a3332000000006000908152601c829052603c81206119546119176101408601866133ed565b8080601f016020809104026020016040519081016040528093929190818152602001838380828437600092019190915250859392505061235b9050565b60005462010000900473ffffffffffffffffffffffffffffffffffffffff90811691161461198657600191505061074d565b5060009392505050565b8015610a795760405160009033907fffffffffffffffffffffffffffffffffffffffffffffffffffffffffffffffff90849084818181858888f193505050503d8060008114610870576040519150601f19603f3d011682016040523d82523d6000602084013e610870565b60005462010000900473ffffffffffffffffffffffffffffffffffffffff16331480611a2657503330145b611534576040517f08c379a000000000000000000000000000000000000000000000000000000000815260206004820152600a60248201527f6f6e6c79206f776e65720000000000000000000000000000000000000000000060448201526064016107c0565b600060018281548110611aa157611aa16133be565b6000918252602082206001600690920201810154815473ffffffffffffffffffffffffffffffffffffffff909116935084908110611ae157611ae16133be565b906000526020600020906006020160020154905060008290508073ffffffffffffffffffffffffffffffffffffffff166323b872dd3060018781548110611b2a57611b2a6133be565b600091825260209091206006909102016003015460405160e084901b7fffffffff0000000000000000000000000000000000000000000000000000000016815273ffffffffffffffffffffffffffffffffffffffff92831660048201529116602482015260448101859052606401600060405180830381600087803b158015611bb257600080fd5b505af1158015611bc6573d6000803e3d6000fd5b50505050611bd38461237f565b73ffffffffffffffffffffffffffffffffffffffff83166000908152600360205260408120805491611c048361351a565b90915550505073ffffffffffffffffffffffffffffffffffffffff90911660009081526004602090815260408083209383529290522080547fffffffffffffffffffffffffffffffffffffffffffffffffffffffffffffff0016905550565b600080547fffffffffffffffffffff0000000000000000000000000000000000000000ffff166201000073ffffffffffffffffffffffffffffffffffffffff8481168202929092178084556040519190048216927f0000000000000000000000000000000000000000000000000000000000000000909216917f47e55c76e7a6f1fd8996a1da8008c1ea29699cca35e7bcd057f2dec313b6e5de91a350565b6000600482511015611d165750600161074d565b6000611d23836020015190565b60408051808201909152601f81527f736574417070726f76616c466f72416c6c28616464726573732c626f6f6c290060209091015290507f5dd34b9b000000000000000000000000000000000000000000000000000000007fffffffff00000000000000000000000000000000000000000000000000000000821601611e7b5773ffffffffffffffffffffffffffffffffffffffff841660009081526003602052604090205415611dd857600091505061074d565b60448301518015611e1e5773ffffffffffffffffffffffffffffffffffffffff85166000908152600560205260408120805491611e1483613481565b9190505550611e70565b602484015181611e6e57611e3286826125c2565b15611e6e5773ffffffffffffffffffffffffffffffffffffffff86166000908152600560205260408120805491611e688361351a565b91905055505b505b60019250505061074d565b60405180606001604052806025815260200161366d60259139805190602001207bffffffffffffffffffffffffffffffffffffffffffffffffffffffff1916817bffffffffffffffffffffffffffffffffffffffffffffffffffffffff19161480611f42575060405180606001604052806029815260200161369260299139805190602001207bffffffffffffffffffffffffffffffffffffffffffffffffffffffff1916817bffffffffffffffffffffffffffffffffffffffffffffffffffffffff1916145b80611fa957506040518060600160405280602f81526020016136e2602f9139805190602001207bffffffffffffffffffffffffffffffffffffffffffffffffffffffff1916817bffffffffffffffffffffffffffffffffffffffffffffffffffffffff1916145b1561201657602483015160648401513073ffffffffffffffffffffffffffffffffffffffff8316036120135773ffffffffffffffffffffffffffffffffffffffff86166000908152600460209081526040808320938352929052205460ff1615925061074d915050565b50505b60408051808201909152601881527f617070726f766528616464726573732c75696e743235362900000000000000006020909101527ff6a1584d000000000000000000000000000000000000000000000000000000007fffffffff000000000000000000000000000000000000000000000000000000008216016120d4575050604481015173ffffffffffffffffffffffffffffffffffffffff83166000908152600460209081526040808320938352929052205460ff161561074d565b5060019392505050565b60006120eb826020015190565b6040805180820190915260208082527f72656e744e465428616464726573732c75696e743235362c75696e743235362991015290507f2975c901000000000000000000000000000000000000000000000000000000007fffffffff00000000000000000000000000000000000000000000000000000000821601610eaf576024820151604483015160648401516040517f6352211e00000000000000000000000000000000000000000000000000000000815260009190849073ffffffffffffffffffffffffffffffffffffffff821690636352211e906121d490879060040190815260200190565b602060405180830381865afa1580156121f1573d6000803e3d6000fd5b505050506040513d601f19601f82011682018060405250810190612215919061354f565b925061222385858585612665565b50505050505050565b73ffffffffffffffffffffffffffffffffffffffff81163b6122d0576040517f08c379a000000000000000000000000000000000000000000000000000000000815260206004820152602d60248201527f455243313936373a206e657720696d706c656d656e746174696f6e206973206e60448201527f6f74206120636f6e74726163740000000000000000000000000000000000000060648201526084016107c0565b7f360894a13ba1a3210667c828492db98dca3e2076cc3735a920a3ca505d382bbc80547fffffffffffffffffffffffff00000000000000000000000000000000000000001673ffffffffffffffffffffffffffffffffffffffff92909216919091179055565b61233f836128c2565b60008251118061234c5750805b156116675761112e838361290f565b600080600061236a8585612934565b9150915061237781612979565b509392505050565b6001805460009161238f9161356c565b9050801561252b57600181815481106123aa576123aa6133be565b9060005260206000209060060201600183815481106123cb576123cb6133be565b600091825260209091208254600690920201908155600180830154818301805473ffffffffffffffffffffffffffffffffffffffff9283167fffffffffffffffffffffffff000000000000000000000000000000000000000091821617909155600280860154908501556003808601549085018054919093169116179055600480840154908301556005928301549290910191909155805483919082908110612476576124766133be565b9060005260206000209060060201600001819055506000600183815481106124a0576124a06133be565b600091825260208083206040805160c081018252600690940290910180548452600181015473ffffffffffffffffffffffffffffffffffffffff908116858501819052600280840154878601908152600385015490931660608801526004840154608088015260059093015460a0909601959095529385528252808420925184529190529020839055505b600180548061253c5761253c613583565b60008281526020812060067fffffffffffffffffffffffffffffffffffffffffffffffffffffffffffffffff909301928302018181556001810180547fffffffffffffffffffffffff0000000000000000000000000000000000000000908116909155600282018390556003820180549091169055600481018290556005015590555050565b6040517fe985e9c500000000000000000000000000000000000000000000000000000000815230600482015273ffffffffffffffffffffffffffffffffffffffff8281166024830152600091849182169063e985e9c590604401602060405180830381865afa158015612639573d6000803e3d6000fd5b505050506040513d601f19601f8201168201806040525081019061265d91906135b2565b949350505050565b6000600180549050905060006040518060c001604052808381526020018773ffffffffffffffffffffffffffffffffffffffff1681526020018681526020018573ffffffffffffffffffffffffffffffffffffffff16815260200142815260200184426126d291906135d4565b9052600180548082018255600091825282517fb10e2d527612073b26eecdfd717e6a320cf44b4afac2b0732d9fcbe2b7fa0cf66006909202918201556020808401517fb10e2d527612073b26eecdfd717e6a320cf44b4afac2b0732d9fcbe2b7fa0cf7830180547fffffffffffffffffffffffff000000000000000000000000000000000000000090811673ffffffffffffffffffffffffffffffffffffffff938416179091556040808701517fb10e2d527612073b26eecdfd717e6a320cf44b4afac2b0732d9fcbe2b7fa0cf886015560608701517fb10e2d527612073b26eecdfd717e6a320cf44b4afac2b0732d9fcbe2b7fa0cf9860180549093169084161790915560808601517fb10e2d527612073b26eecdfd717e6a320cf44b4afac2b0732d9fcbe2b7fa0cfa85015560a08601517fb10e2d527612073b26eecdfd717e6a320cf44b4afac2b0732d9fcbe2b7fa0cfb909401939093558a16808452600282528284208a85528252828420879055835260039052812080549293509061285b83613481565b90915550505073ffffffffffffffffffffffffffffffffffffffff90941660009081526004602090815260408083209583529490529290922080547fffffffffffffffffffffffffffffffffffffffffffffffffffffffffffffff00166001179055505050565b6128cb8161222c565b60405173ffffffffffffffffffffffffffffffffffffffff8216907fbc7cd75a20ee27fd9adebab32041f755214dbc6bffa90cc0225b39da2e5c2d3b90600090a250565b6060610a9b83836040518060600160405280602781526020016136bb60279139612b2c565b600080825160410361296a5760208301516040840151606085015160001a61295e87828585612bb1565b94509450505050612972565b506000905060025b9250929050565b600081600481111561298d5761298d6135ec565b036129955750565b60018160048111156129a9576129a96135ec565b03612a10576040517f08c379a000000000000000000000000000000000000000000000000000000000815260206004820152601860248201527f45434453413a20696e76616c6964207369676e6174757265000000000000000060448201526064016107c0565b6002816004811115612a2457612a246135ec565b03612a8b576040517f08c379a000000000000000000000000000000000000000000000000000000000815260206004820152601f60248201527f45434453413a20696e76616c6964207369676e6174757265206c656e6774680060448201526064016107c0565b6003816004811115612a9f57612a9f6135ec565b03610a79576040517f08c379a000000000000000000000000000000000000000000000000000000000815260206004820152602260248201527f45434453413a20696e76616c6964207369676e6174757265202773272076616c60448201527f756500000000000000000000000000000000000000000000000000000000000060648201526084016107c0565b60606000808573ffffffffffffffffffffffffffffffffffffffff1685604051612b5691906134fe565b600060405180830381855af49150503d8060008114612b91576040519150601f19603f3d011682016040523d82523d6000602084013e612b96565b606091505b5091509150612ba786838387612ca0565b9695505050505050565b6000807f7fffffffffffffffffffffffffffffff5d576e7357a4501ddfe92f46681b20a0831115612be85750600090506003612c97565b6040805160008082526020820180845289905260ff881692820192909252606081018690526080810185905260019060a0016020604051602081039080840390855afa158015612c3c573d6000803e3d6000fd5b50506040517fffffffffffffffffffffffffffffffffffffffffffffffffffffffffffffffe0015191505073ffffffffffffffffffffffffffffffffffffffff8116612c9057600060019250925050612c97565b9150600090505b94509492505050565b60608315612d36578251600003612d2f5773ffffffffffffffffffffffffffffffffffffffff85163b612d2f576040517f08c379a000000000000000000000000000000000000000000000000000000000815260206004820152601d60248201527f416464726573733a2063616c6c20746f206e6f6e2d636f6e747261637400000060448201526064016107c0565b508161265d565b61265d8383815115612d4b5781518083602001fd5b806040517f08c379a00000000000000000000000000000000000000000000000000000000081526004016107c0919061361b565b73ffffffffffffffffffffffffffffffffffffffff81168114610a7957600080fd5b60008083601f840112612db357600080fd5b50813567ffffffffffffffff811115612dcb57600080fd5b60208301915083602082850101111561297257600080fd5b60008060008060008060008060c0898b031215612dff57600080fd5b8835612e0a81612d7f565b97506020890135612e1a81612d7f565b96506040890135612e2a81612d7f565b955060608901359450608089013567ffffffffffffffff80821115612e4e57600080fd5b612e5a8c838d01612da1565b909650945060a08b0135915080821115612e7357600080fd5b50612e808b828c01612da1565b999c989b5096995094979396929594505050565b600060208284031215612ea657600080fd5b81357fffffffff0000000000000000000000000000000000000000000000000000000081168114610a9b57600080fd5b60008060408385031215612ee957600080fd5b8235612ef481612d7f565b946020939093013593505050565b600080600080600060808688031215612f1a57600080fd5b8535612f2581612d7f565b94506020860135612f3581612d7f565b935060408601359250606086013567ffffffffffffffff811115612f5857600080fd5b612f6488828901612da1565b969995985093965092949392505050565b60008083601f840112612f8757600080fd5b50813567ffffffffffffffff811115612f9f57600080fd5b6020830191508360208260051b850101111561297257600080fd5b60008060008060408587031215612fd057600080fd5b843567ffffffffffffffff80821115612fe857600080fd5b612ff488838901612f75565b9096509450602087013591508082111561300d57600080fd5b5061301a87828801612f75565b95989497509550505050565b60006020828403121561303857600080fd5b8135610a9b81612d7f565b60008060006060848603121561305857600080fd5b833567ffffffffffffffff81111561306f57600080fd5b8401610160818703121561308257600080fd5b95602085013595506040909401359392505050565b7f4e487b7100000000000000000000000000000000000000000000000000000000600052604160045260246000fd5b600080604083850312156130d957600080fd5b82356130e481612d7f565b9150602083013567ffffffffffffffff8082111561310157600080fd5b818501915085601f83011261311557600080fd5b81358181111561312757613127613097565b604051601f82017fffffffffffffffffffffffffffffffffffffffffffffffffffffffffffffffe0908116603f0116810190838211818310171561316d5761316d613097565b8160405282815288602084870101111561318657600080fd5b8260208601602083013760006020848301015280955050505050509250929050565b602080825282518282018190526000919060409081850190868401855b8281101561322e578151805185528681015173ffffffffffffffffffffffffffffffffffffffff908116888701528682015187870152606080830151909116908601526080808201519086015260a0908101519085015260c090930192908501906001016131c5565b5091979650505050505050565b60006020828403121561324d57600080fd5b5035919050565b6000806000806060858703121561326a57600080fd5b843561327581612d7f565b935060208501359250604085013567ffffffffffffffff81111561329857600080fd5b61301a87828801612da1565b60008060008060008060008060a0898b0312156132c057600080fd5b88356132cb81612d7f565b975060208901356132db81612d7f565b9650604089013567ffffffffffffffff808211156132f857600080fd5b6133048c838d01612f75565b909850965060608b013591508082111561331d57600080fd5b6133298c838d01612f75565b909650945060808b0135915080821115612e7357600080fd5b60008060008060008060a0878903121561335b57600080fd5b863561336681612d7f565b9550602087013561337681612d7f565b94506040870135935060608701359250608087013567ffffffffffffffff8111156133a057600080fd5b6133ac89828a01612da1565b979a9699509497509295939492505050565b7f4e487b7100000000000000000000000000000000000000000000000000000000600052603260045260246000fd5b60008083357fffffffffffffffffffffffffffffffffffffffffffffffffffffffffffffffe184360301811261342257600080fd5b83018035915067ffffffffffffffff82111561343d57600080fd5b60200191503681900382131561297257600080fd5b7f4e487b7100000000000000000000000000000000000000000000000000000000600052601160045260246000fd5b60007fffffffffffffffffffffffffffffffffffffffffffffffffffffffffffffffff82036134b2576134b2613452565b5060010190565b6000602082840312156134cb57600080fd5b5051919050565b60005b838110156134ed5781810151838201526020016134d5565b8381111561112e5750506000910152565b600082516135108184602087016134d2565b9190910192915050565b60008161352957613529613452565b507fffffffffffffffffffffffffffffffffffffffffffffffffffffffffffffffff0190565b60006020828403121561356157600080fd5b8151610a9b81612d7f565b60008282101561357e5761357e613452565b500390565b7f4e487b7100000000000000000000000000000000000000000000000000000000600052603160045260246000fd5b6000602082840312156135c457600080fd5b81518015158114610a9b57600080fd5b600082198211156135e7576135e7613452565b500190565b7f4e487b7100000000000000000000000000000000000000000000000000000000600052602160045260246000fd5b602081526000825180602084015261363a8160408501602087016134d2565b601f017fffffffffffffffffffffffffffffffffffffffffffffffffffffffffffffffe016919091016040019291505056fe7472616e7366657246726f6d28616464726573732c616464726573732c75696e7432353629736166655472616e7366657246726f6d28616464726573732c616464726573732c75696e7432353629416464726573733a206c6f772d6c6576656c2064656c65676174652063616c6c206661696c6564736166655472616e7366657246726f6d28616464726573732c616464726573732c75696e743235362c627974657329a264697066735822122096a0246126635766c300c48eb37229954c4162f0bf26c0672a70ce96d698368164736f6c634300080f0033",
  "devdoc": {
    "kind": "dev",
    "methods": {},
    "version": 1
  },
  "userdoc": {
    "kind": "user",
    "methods": {
      "createAccount(address,uint256)": {
        "notice": "create an account, and return its address. returns the address even if the account is already deployed. Note that during UserOperation execution, this method is called only if the account is not deployed. This method returns an existing account address so that entryPoint.getSenderAddress() would work even after account creation"
      },
      "getAddress(address,uint256)": {
        "notice": "calculate the counterfactual address of this account as it would be returned by createAccount()"
      },
      "isSmartAccount(address)": {
        "notice": "checks weather or not an address is a Smart Account created via this contract"
      }
    },
    "notice": "A UserOperations \"initCode\" holds the address of the factory, and a method call (to createAccount, in this sample factory). The factory's createAccount returns the target account address even if it is already installed. This way, the entryPoint.getSenderAddress() can be called either before or after the account is created.",
    "version": 1
  },
  "storageLayout": {
    "storage": [
      {
        "astId": 6316,
        "contract": "contracts/protocol/SmartAccountFactory.sol:SmartAccountFactory",
        "label": "_isSmartAccount",
        "offset": 0,
        "slot": "0",
        "type": "t_mapping(t_address,t_bool)"
      }
    ],
    "types": {
      "t_address": {
        "encoding": "inplace",
        "label": "address",
        "numberOfBytes": "20"
      },
      "t_bool": {
        "encoding": "inplace",
        "label": "bool",
        "numberOfBytes": "1"
      },
      "t_mapping(t_address,t_bool)": {
        "encoding": "mapping",
        "key": "t_address",
        "label": "mapping(address => bool)",
        "numberOfBytes": "32",
        "value": "t_bool"
      }
    }
  }
}