{
  "_format": "hh-sol-artifact-1",
  "contractName": "SmartAccount",
  "sourceName": "contracts/protocol/SmartAccount.sol",
  "abi": [
    {
      "inputs": [
        {
          "internalType": "contract IEntryPoint",
          "name": "anEntryPoint",
          "type": "address"
        }
      ],
      "stateMutability": "nonpayable",
      "type": "constructor"
    },
    {
      "anonymous": false,
      "inputs": [
        {
          "indexed": false,
          "internalType": "address",
          "name": "previousAdmin",
          "type": "address"
        },
        {
          "indexed": false,
          "internalType": "address",
          "name": "newAdmin",
          "type": "address"
        }
      ],
      "name": "AdminChanged",
      "type": "event"
    },
    {
      "anonymous": false,
      "inputs": [
        {
          "indexed": true,
          "internalType": "address",
          "name": "beacon",
          "type": "address"
        }
      ],
      "name": "BeaconUpgraded",
      "type": "event"
    },
    {
      "anonymous": false,
      "inputs": [
        {
          "indexed": false,
          "internalType": "uint8",
          "name": "version",
          "type": "uint8"
        }
      ],
      "name": "Initialized",
      "type": "event"
    },
    {
      "anonymous": false,
      "inputs": [
        {
          "indexed": true,
          "internalType": "contract IEntryPoint",
          "name": "entryPoint",
          "type": "address"
        },
        {
          "indexed": true,
          "internalType": "address",
          "name": "owner",
          "type": "address"
        }
      ],
      "name": "SimpleAccountInitialized",
      "type": "event"
    },
    {
      "anonymous": false,
      "inputs": [
        {
          "indexed": true,
          "internalType": "address",
          "name": "implementation",
          "type": "address"
        }
      ],
      "name": "Upgraded",
      "type": "event"
    },
    {
      "inputs": [],
      "name": "addDeposit",
      "outputs": [],
      "stateMutability": "payable",
      "type": "function"
    },
    {
      "inputs": [],
      "name": "entryPoint",
      "outputs": [
        {
          "internalType": "contract IEntryPoint",
          "name": "",
          "type": "address"
        }
      ],
      "stateMutability": "view",
      "type": "function"
    },
    {
      "inputs": [
        {
          "internalType": "address",
          "name": "dest",
          "type": "address"
        },
        {
          "internalType": "uint256",
          "name": "value",
          "type": "uint256"
        },
        {
          "internalType": "bytes",
          "name": "func",
          "type": "bytes"
        }
      ],
      "name": "execute",
      "outputs": [],
      "stateMutability": "nonpayable",
      "type": "function"
    },
    {
      "inputs": [
        {
          "internalType": "address[]",
          "name": "dest",
          "type": "address[]"
        },
        {
          "internalType": "bytes[]",
          "name": "func",
          "type": "bytes[]"
        }
      ],
      "name": "executeBatch",
      "outputs": [],
      "stateMutability": "nonpayable",
      "type": "function"
    },
    {
      "inputs": [],
      "name": "getDeposit",
      "outputs": [
        {
          "internalType": "uint256",
          "name": "",
          "type": "uint256"
        }
      ],
      "stateMutability": "view",
      "type": "function"
    },
    {
      "inputs": [
        {
          "internalType": "address",
          "name": "contract_",
          "type": "address"
        },
        {
          "internalType": "uint256",
          "name": "tokenId",
          "type": "uint256"
        }
      ],
      "name": "getEndTime",
      "outputs": [
        {
          "internalType": "uint256",
          "name": "",
          "type": "uint256"
        }
      ],
      "stateMutability": "view",
      "type": "function"
    },
    {
      "inputs": [],
      "name": "getNonce",
      "outputs": [
        {
          "internalType": "uint256",
          "name": "",
          "type": "uint256"
        }
      ],
      "stateMutability": "view",
      "type": "function"
    },
    {
      "inputs": [
        {
          "internalType": "address",
          "name": "contract_",
          "type": "address"
        }
      ],
      "name": "getOperatorCount",
      "outputs": [
        {
          "internalType": "uint256",
          "name": "",
          "type": "uint256"
        }
      ],
      "stateMutability": "view",
      "type": "function"
    },
    {
      "inputs": [
        {
          "internalType": "address",
          "name": "contract_",
          "type": "address"
        }
      ],
      "name": "getRentalCounterByContract",
      "outputs": [
        {
          "internalType": "uint256",
          "name": "",
          "type": "uint256"
        }
      ],
      "stateMutability": "view",
      "type": "function"
    },
    {
      "inputs": [],
      "name": "getRentals",
      "outputs": [
        {
          "components": [
            {
              "internalType": "uint256",
              "name": "index",
              "type": "uint256"
            },
            {
              "internalType": "address",
              "name": "contract_",
              "type": "address"
            },
            {
              "internalType": "uint256",
              "name": "id",
              "type": "uint256"
            },
            {
              "internalType": "address",
              "name": "lender",
              "type": "address"
            },
            {
              "internalType": "uint256",
              "name": "startTime",
              "type": "uint256"
            },
            {
              "internalType": "uint256",
              "name": "endTime",
              "type": "uint256"
            }
          ],
          "internalType": "struct SmartAccount.NFT[]",
          "name": "",
          "type": "tuple[]"
        }
      ],
      "stateMutability": "view",
      "type": "function"
    },
    {
      "inputs": [
        {
          "internalType": "address",
          "name": "contract_",
          "type": "address"
        },
        {
          "internalType": "uint256",
          "name": "tokenId",
          "type": "uint256"
        }
      ],
      "name": "getTokenIndex",
      "outputs": [
        {
          "internalType": "uint256",
          "name": "",
          "type": "uint256"
        }
      ],
      "stateMutability": "view",
      "type": "function"
    },
    {
      "inputs": [
        {
          "internalType": "address",
          "name": "anOwner",
          "type": "address"
        }
      ],
      "name": "initialize",
      "outputs": [],
      "stateMutability": "nonpayable",
      "type": "function"
    },
    {
      "inputs": [
        {
          "internalType": "address",
          "name": "contract_",
          "type": "address"
        },
        {
          "internalType": "uint256",
          "name": "tokenId",
          "type": "uint256"
        }
      ],
      "name": "isRental",
      "outputs": [
        {
          "internalType": "bool",
          "name": "",
          "type": "bool"
        }
      ],
      "stateMutability": "view",
      "type": "function"
    },
    {
      "inputs": [
        {
          "internalType": "address",
          "name": "",
          "type": "address"
        },
        {
          "internalType": "address",
          "name": "",
          "type": "address"
        },
        {
          "internalType": "uint256[]",
          "name": "",
          "type": "uint256[]"
        },
        {
          "internalType": "uint256[]",
          "name": "",
          "type": "uint256[]"
        },
        {
          "internalType": "bytes",
          "name": "",
          "type": "bytes"
        }
      ],
      "name": "onERC1155BatchReceived",
      "outputs": [
        {
          "internalType": "bytes4",
          "name": "",
          "type": "bytes4"
        }
      ],
      "stateMutability": "pure",
      "type": "function"
    },
    {
      "inputs": [
        {
          "internalType": "address",
          "name": "",
          "type": "address"
        },
        {
          "internalType": "address",
          "name": "",
          "type": "address"
        },
        {
          "internalType": "uint256",
          "name": "",
          "type": "uint256"
        },
        {
          "internalType": "uint256",
          "name": "",
          "type": "uint256"
        },
        {
          "internalType": "bytes",
          "name": "",
          "type": "bytes"
        }
      ],
      "name": "onERC1155Received",
      "outputs": [
        {
          "internalType": "bytes4",
          "name": "",
          "type": "bytes4"
        }
      ],
      "stateMutability": "pure",
      "type": "function"
    },
    {
      "inputs": [
        {
          "internalType": "address",
          "name": "",
          "type": "address"
        },
        {
          "internalType": "address",
          "name": "",
          "type": "address"
        },
        {
          "internalType": "uint256",
          "name": "",
          "type": "uint256"
        },
        {
          "internalType": "bytes",
          "name": "",
          "type": "bytes"
        }
      ],
      "name": "onERC721Received",
      "outputs": [
        {
          "internalType": "bytes4",
          "name": "",
          "type": "bytes4"
        }
      ],
      "stateMutability": "pure",
      "type": "function"
    },
    {
      "inputs": [],
      "name": "owner",
      "outputs": [
        {
          "internalType": "address",
          "name": "",
          "type": "address"
        }
      ],
      "stateMutability": "view",
      "type": "function"
    },
    {
      "inputs": [],
      "name": "proxiableUUID",
      "outputs": [
        {
          "internalType": "bytes32",
          "name": "",
          "type": "bytes32"
        }
      ],
      "stateMutability": "view",
      "type": "function"
    },
    {
      "inputs": [
        {
          "internalType": "uint256",
          "name": "index",
          "type": "uint256"
        }
      ],
      "name": "pullAsset",
      "outputs": [],
      "stateMutability": "nonpayable",
      "type": "function"
    },
    {
      "inputs": [
        {
          "internalType": "uint256",
          "name": "index",
          "type": "uint256"
        }
      ],
      "name": "releaseSingleAsset",
      "outputs": [],
      "stateMutability": "nonpayable",
      "type": "function"
    },
    {
      "inputs": [
        {
          "internalType": "bytes4",
          "name": "interfaceId",
          "type": "bytes4"
        }
      ],
      "name": "supportsInterface",
      "outputs": [
        {
          "internalType": "bool",
          "name": "",
          "type": "bool"
        }
      ],
      "stateMutability": "view",
      "type": "function"
    },
    {
      "inputs": [
        {
          "internalType": "address",
          "name": "",
          "type": "address"
        },
        {
          "internalType": "address",
          "name": "",
          "type": "address"
        },
        {
          "internalType": "address",
          "name": "",
          "type": "address"
        },
        {
          "internalType": "uint256",
          "name": "",
          "type": "uint256"
        },
        {
          "internalType": "bytes",
          "name": "",
          "type": "bytes"
        },
        {
          "internalType": "bytes",
          "name": "",
          "type": "bytes"
        }
      ],
      "name": "tokensReceived",
      "outputs": [],
      "stateMutability": "pure",
      "type": "function"
    },
    {
      "inputs": [
        {
          "internalType": "address",
          "name": "newImplementation",
          "type": "address"
        }
      ],
      "name": "upgradeTo",
      "outputs": [],
      "stateMutability": "nonpayable",
      "type": "function"
    },
    {
      "inputs": [
        {
          "internalType": "address",
          "name": "newImplementation",
          "type": "address"
        },
        {
          "internalType": "bytes",
          "name": "data",
          "type": "bytes"
        }
      ],
      "name": "upgradeToAndCall",
      "outputs": [],
      "stateMutability": "payable",
      "type": "function"
    },
    {
      "inputs": [
        {
          "components": [
            {
              "internalType": "address",
              "name": "sender",
              "type": "address"
            },
            {
              "internalType": "uint256",
              "name": "nonce",
              "type": "uint256"
            },
            {
              "internalType": "bytes",
              "name": "initCode",
              "type": "bytes"
            },
            {
              "internalType": "bytes",
              "name": "callData",
              "type": "bytes"
            },
            {
              "internalType": "uint256",
              "name": "callGasLimit",
              "type": "uint256"
            },
            {
              "internalType": "uint256",
              "name": "verificationGasLimit",
              "type": "uint256"
            },
            {
              "internalType": "uint256",
              "name": "preVerificationGas",
              "type": "uint256"
            },
            {
              "internalType": "uint256",
              "name": "maxFeePerGas",
              "type": "uint256"
            },
            {
              "internalType": "uint256",
              "name": "maxPriorityFeePerGas",
              "type": "uint256"
            },
            {
              "internalType": "bytes",
              "name": "paymasterAndData",
              "type": "bytes"
            },
            {
              "internalType": "bytes",
              "name": "signature",
              "type": "bytes"
            }
          ],
          "internalType": "struct UserOperation",
          "name": "userOp",
          "type": "tuple"
        },
        {
          "internalType": "bytes32",
          "name": "userOpHash",
          "type": "bytes32"
        },
        {
          "internalType": "uint256",
          "name": "missingAccountFunds",
          "type": "uint256"
        }
      ],
      "name": "validateUserOp",
      "outputs": [
        {
          "internalType": "uint256",
          "name": "validationData",
          "type": "uint256"
        }
      ],
      "stateMutability": "nonpayable",
      "type": "function"
    },
    {
      "inputs": [
        {
          "internalType": "address payable",
          "name": "withdrawAddress",
          "type": "address"
        },
        {
          "internalType": "uint256",
          "name": "amount",
          "type": "uint256"
        }
      ],
      "name": "withdrawDepositTo",
      "outputs": [],
      "stateMutability": "nonpayable",
      "type": "function"
    },
    {
      "stateMutability": "payable",
      "type": "receive"
    }
  ],
  "bytecode": "0x60c0604052306080523480156200001557600080fd5b50604051620039a3380380620039a3833981016040819052620000389162000262565b6001600160a01b03811660a0526200004f620001a1565b506040805160c081018252600080825260208201818152928201818152606083018281526080840183815260a08501848152600180548082018255955294517fb10e2d527612073b26eecdfd717e6a320cf44b4afac2b0732d9fcbe2b7fa0cf660069095029485015594517fb10e2d527612073b26eecdfd717e6a320cf44b4afac2b0732d9fcbe2b7fa0cf7840180546001600160a01b03199081166001600160a01b039384161790915592517fb10e2d527612073b26eecdfd717e6a320cf44b4afac2b0732d9fcbe2b7fa0cf885015590517fb10e2d527612073b26eecdfd717e6a320cf44b4afac2b0732d9fcbe2b7fa0cf984018054909316911617905591517fb10e2d527612073b26eecdfd717e6a320cf44b4afac2b0732d9fcbe2b7fa0cfa830155517fb10e2d527612073b26eecdfd717e6a320cf44b4afac2b0732d9fcbe2b7fa0cfb9091015562000294565b600054610100900460ff16156200020e5760405162461bcd60e51b815260206004820152602760248201527f496e697469616c697a61626c653a20636f6e747261637420697320696e697469604482015266616c697a696e6760c81b606482015260840160405180910390fd5b60005460ff9081161462000260576000805460ff191660ff9081179091556040519081527f7f26b83ff96e1f2b6a682f133852f6798a09c465da95921460cefb38474024989060200160405180910390a15b565b6000602082840312156200027557600080fd5b81516001600160a01b03811681146200028d57600080fd5b9392505050565b60805160a05161369c62000307600039600081816104ef01528181610aa401528181610b4b015281816111ed0152818161143e01528181611485015281816118500152611cb901526000818161088e0152818161093e01528181610cd401528181610d840152610ecd015261369c6000f3fe6080604052600436106101a45760003560e01c80636be196d4116100e1578063b878d3881161008a578063c399ec8811610064578063c399ec88146105de578063c4d66de8146105f3578063d087d28814610613578063f23a6e611461062857600080fd5b8063b878d38814610533578063bc197c8114610576578063c2c959a8146105be57600080fd5b80638da5cb5b116100bb5780638da5cb5b14610488578063b0d691fe146104e0578063b61d27f61461051357600080fd5b80636be196d4146103d2578063890188971461042557806389e5900a1461044557600080fd5b80633a871cdd1161014e5780634e620c86116101285780634e620c86146103685780634f1ef2861461038857806352d1902d1461039b5780635ea5da20146103b057600080fd5b80633a871cdd146103205780634a58db19146103405780634d44560d1461034857600080fd5b8063150b7a021161017f578063150b7a021461026a57806318dfb3c7146102e05780633659cfe61461030057600080fd5b806223de29146101b057806301ffc9a7146101d757806312c86a6d1461020c57600080fd5b366101ab57005b600080fd5b3480156101bc57600080fd5b506101d56101cb366004612d39565b5050505050505050565b005b3480156101e357600080fd5b506101f76101f2366004612dea565b61066e565b60405190151581526020015b60405180910390f35b34801561021857600080fd5b5061025c610227366004612e2c565b73ffffffffffffffffffffffffffffffffffffffff919091166000908152600260209081526040808320938352929052205490565b604051908152602001610203565b34801561027657600080fd5b506102af610285366004612e58565b7f150b7a020000000000000000000000000000000000000000000000000000000095945050505050565b6040517fffffffff000000000000000000000000000000000000000000000000000000009091168152602001610203565b3480156102ec57600080fd5b506101d56102fb366004612f10565b610753565b34801561030c57600080fd5b506101d561031b366004612f7c565b610877565b34801561032c57600080fd5b5061025c61033b366004612f99565b610a7c565b6101d5610aa2565b34801561035457600080fd5b506101d5610363366004612e2c565b610b41565b34801561037457600080fd5b5061025c610383366004612e2c565b610bf8565b6101d561039636600461301c565b610cbd565b3480156103a757600080fd5b5061025c610eb3565b3480156103bc57600080fd5b506103c5610f9f565b60405161020391906130fe565b3480156103de57600080fd5b506101f76103ed366004612e2c565b73ffffffffffffffffffffffffffffffffffffffff919091166000908152600460209081526040808320938352929052205460ff1690565b34801561043157600080fd5b506101d5610440366004613191565b61104f565b34801561045157600080fd5b5061025c610460366004612f7c565b73ffffffffffffffffffffffffffffffffffffffff1660009081526005602052604090205490565b34801561049457600080fd5b506000546104bb9062010000900473ffffffffffffffffffffffffffffffffffffffff1681565b60405173ffffffffffffffffffffffffffffffffffffffff9091168152602001610203565b3480156104ec57600080fd5b507f00000000000000000000000000000000000000000000000000000000000000006104bb565b34801561051f57600080fd5b506101d561052e3660046131aa565b6110e5565b34801561053f57600080fd5b5061025c61054e366004612f7c565b73ffffffffffffffffffffffffffffffffffffffff1660009081526003602052604090205490565b34801561058257600080fd5b506102af6105913660046131fa565b7fbc197c810000000000000000000000000000000000000000000000000000000098975050505050505050565b3480156105ca57600080fd5b506101d56105d9366004613191565b611134565b3480156105ea57600080fd5b5061025c6111a7565b3480156105ff57600080fd5b506101d561060e366004612f7c565b61125e565b34801561061f57600080fd5b5061025c6113f1565b34801561063457600080fd5b506102af610643366004613298565b7ff23a6e61000000000000000000000000000000000000000000000000000000009695505050505050565b60007fffffffff0000000000000000000000000000000000000000000000000000000082167f150b7a0200000000000000000000000000000000000000000000000000000000148061070157507fffffffff0000000000000000000000000000000000000000000000000000000082167f4e2312e000000000000000000000000000000000000000000000000000000000145b8061074d57507fffffffff0000000000000000000000000000000000000000000000000000000082167f01ffc9a700000000000000000000000000000000000000000000000000000000145b92915050565b61075b61146d565b8281146107c9576040517f08c379a000000000000000000000000000000000000000000000000000000000815260206004820152601360248201527f77726f6e67206172726179206c656e677468730000000000000000000000000060448201526064015b60405180910390fd5b60005b838110156108705761085e8585838181106107e9576107e9613314565b90506020020160208101906107fe9190612f7c565b600085858581811061081257610812613314565b90506020028101906108249190613343565b8080601f01602080910402602001604051908101604052809392919081815260200183838082843760009201919091525061153692505050565b80610868816133d7565b9150506107cc565b5050505050565b73ffffffffffffffffffffffffffffffffffffffff7f000000000000000000000000000000000000000000000000000000000000000016300361093c576040517f08c379a000000000000000000000000000000000000000000000000000000000815260206004820152602c60248201527f46756e6374696f6e206d7573742062652063616c6c6564207468726f7567682060448201527f64656c656761746563616c6c000000000000000000000000000000000000000060648201526084016107c0565b7f000000000000000000000000000000000000000000000000000000000000000073ffffffffffffffffffffffffffffffffffffffff166109b17f360894a13ba1a3210667c828492db98dca3e2076cc3735a920a3ca505d382bbc5473ffffffffffffffffffffffffffffffffffffffff1690565b73ffffffffffffffffffffffffffffffffffffffff1614610a54576040517f08c379a000000000000000000000000000000000000000000000000000000000815260206004820152602c60248201527f46756e6374696f6e206d7573742062652063616c6c6564207468726f7567682060448201527f6163746976652070726f7879000000000000000000000000000000000000000060648201526084016107c0565b610a5d8161162c565b60408051600080825260208201909252610a7991839190611634565b50565b6000610a86611838565b610a9084846118d7565b9050610a9b82611990565b9392505050565b7f00000000000000000000000000000000000000000000000000000000000000006040517fb760faf900000000000000000000000000000000000000000000000000000000815230600482015273ffffffffffffffffffffffffffffffffffffffff919091169063b760faf99034906024016000604051808303818588803b158015610b2d57600080fd5b505af1158015610870573d6000803e3d6000fd5b610b496119fb565b7f00000000000000000000000000000000000000000000000000000000000000006040517f205c287800000000000000000000000000000000000000000000000000000000815273ffffffffffffffffffffffffffffffffffffffff848116600483015260248201849052919091169063205c287890604401600060405180830381600087803b158015610bdc57600080fd5b505af1158015610bf0573d6000803e3d6000fd5b505050505050565b73ffffffffffffffffffffffffffffffffffffffff82166000908152600260209081526040808320848452909152812054600180548392908110610c3e57610c3e613314565b60009182526020918290206040805160c081018252600690930290910180548352600181015473ffffffffffffffffffffffffffffffffffffffff90811694840194909452600281015491830191909152600381015490921660608201526004820154608082015260059091015460a090910181905291505092915050565b73ffffffffffffffffffffffffffffffffffffffff7f0000000000000000000000000000000000000000000000000000000000000000163003610d82576040517f08c379a000000000000000000000000000000000000000000000000000000000815260206004820152602c60248201527f46756e6374696f6e206d7573742062652063616c6c6564207468726f7567682060448201527f64656c656761746563616c6c000000000000000000000000000000000000000060648201526084016107c0565b7f000000000000000000000000000000000000000000000000000000000000000073ffffffffffffffffffffffffffffffffffffffff16610df77f360894a13ba1a3210667c828492db98dca3e2076cc3735a920a3ca505d382bbc5473ffffffffffffffffffffffffffffffffffffffff1690565b73ffffffffffffffffffffffffffffffffffffffff1614610e9a576040517f08c379a000000000000000000000000000000000000000000000000000000000815260206004820152602c60248201527f46756e6374696f6e206d7573742062652063616c6c6564207468726f7567682060448201527f6163746976652070726f7879000000000000000000000000000000000000000060648201526084016107c0565b610ea38261162c565b610eaf82826001611634565b5050565b60003073ffffffffffffffffffffffffffffffffffffffff7f00000000000000000000000000000000000000000000000000000000000000001614610f7a576040517f08c379a000000000000000000000000000000000000000000000000000000000815260206004820152603860248201527f555550535570677261646561626c653a206d757374206e6f742062652063616c60448201527f6c6564207468726f7567682064656c656761746563616c6c000000000000000060648201526084016107c0565b507f360894a13ba1a3210667c828492db98dca3e2076cc3735a920a3ca505d382bbc90565b60606001805480602002602001604051908101604052809291908181526020016000905b828210156110465760008481526020908190206040805160c081018252600686029092018054835260018082015473ffffffffffffffffffffffffffffffffffffffff9081168587015260028301549385019390935260038201549092166060840152600481015460808401526005015460a08301529083529092019101610fc3565b50505050905090565b6001818154811061106257611062613314565b90600052602060002090600602016005015442116110dc576040517f08c379a000000000000000000000000000000000000000000000000000000000815260206004820152601960248201527f4c6f616e206475726174696f6e206e6f7420726561636865640000000000000060448201526064016107c0565b610a7981611a8c565b6110ed61146d565b61112e848484848080601f01602080910402602001604051908101604052809392919081815260200183838082843760009201919091525061153692505050565b50505050565b61113c6119fb565b60015481106110dc576040517f08c379a000000000000000000000000000000000000000000000000000000000815260206004820152600d60248201527f696e76616c696420696e6465780000000000000000000000000000000000000060448201526064016107c0565b6040517f70a0823100000000000000000000000000000000000000000000000000000000815230600482015260009073ffffffffffffffffffffffffffffffffffffffff7f000000000000000000000000000000000000000000000000000000000000000016906370a08231906024015b602060405180830381865afa158015611235573d6000803e3d6000fd5b505050506040513d601f19601f82011682018060405250810190611259919061340f565b905090565b600054610100900460ff161580801561127e5750600054600160ff909116105b806112985750303b158015611298575060005460ff166001145b611324576040517f08c379a000000000000000000000000000000000000000000000000000000000815260206004820152602e60248201527f496e697469616c697a61626c653a20636f6e747261637420697320616c72656160448201527f647920696e697469616c697a656400000000000000000000000000000000000060648201526084016107c0565b600080547fffffffffffffffffffffffffffffffffffffffffffffffffffffffffffffff00166001179055801561138257600080547fffffffffffffffffffffffffffffffffffffffffffffffffffffffffffff00ff166101001790555b61138b82611c63565b8015610eaf57600080547fffffffffffffffffffffffffffffffffffffffffffffffffffffffffffff00ff169055604051600181527f7f26b83ff96e1f2b6a682f133852f6798a09c465da95921460cefb38474024989060200160405180910390a15050565b6040517f35567e1a0000000000000000000000000000000000000000000000000000000081523060048201526000602482018190529073ffffffffffffffffffffffffffffffffffffffff7f000000000000000000000000000000000000000000000000000000000000000016906335567e1a90604401611218565b3373ffffffffffffffffffffffffffffffffffffffff7f00000000000000000000000000000000000000000000000000000000000000001614806114ce575060005462010000900473ffffffffffffffffffffffffffffffffffffffff1633145b611534576040517f08c379a000000000000000000000000000000000000000000000000000000000815260206004820181905260248201527f6163636f756e743a206e6f74204f776e6572206f7220456e747279506f696e7460448201526064016107c0565b565b6115408382611d02565b6115a6576040517f08c379a000000000000000000000000000000000000000000000000000000000815260206004820152601660248201527f556e617574686f72697a6564206f7065726174696f6e0000000000000000000060448201526064016107c0565b6115af816120de565b6000808473ffffffffffffffffffffffffffffffffffffffff1684846040516115d89190613454565b60006040518083038185875af1925050503d8060008114611615576040519150601f19603f3d011682016040523d82523d6000602084013e61161a565b606091505b50915091508161087057805160208201fd5b610a796119fb565b7f4910fdfa16fed3260ed0e7147f7cc6da11a60208b5b9406d12a635614ffd91435460ff161561166c576116678361222c565b505050565b8273ffffffffffffffffffffffffffffffffffffffff166352d1902d6040518163ffffffff1660e01b8152600401602060405180830381865afa9250505080156116f1575060408051601f3d9081017fffffffffffffffffffffffffffffffffffffffffffffffffffffffffffffffe01682019092526116ee9181019061340f565b60015b61177d576040517f08c379a000000000000000000000000000000000000000000000000000000000815260206004820152602e60248201527f45524331393637557067726164653a206e657720696d706c656d656e7461746960448201527f6f6e206973206e6f74205555505300000000000000000000000000000000000060648201526084016107c0565b7f360894a13ba1a3210667c828492db98dca3e2076cc3735a920a3ca505d382bbc811461182c576040517f08c379a000000000000000000000000000000000000000000000000000000000815260206004820152602960248201527f45524331393637557067726164653a20756e737570706f727465642070726f7860448201527f6961626c6555554944000000000000000000000000000000000000000000000060648201526084016107c0565b50611667838383612336565b3373ffffffffffffffffffffffffffffffffffffffff7f00000000000000000000000000000000000000000000000000000000000000001614611534576040517f08c379a000000000000000000000000000000000000000000000000000000000815260206004820152601c60248201527f6163636f756e743a206e6f742066726f6d20456e747279506f696e740000000060448201526064016107c0565b7f19457468657265756d205369676e6564204d6573736167653a0a3332000000006000908152601c829052603c8120611954611917610140860186613343565b8080601f016020809104026020016040519081016040528093929190818152602001838380828437600092019190915250859392505061235b9050565b60005462010000900473ffffffffffffffffffffffffffffffffffffffff90811691161461198657600191505061074d565b5060009392505050565b8015610a795760405160009033907fffffffffffffffffffffffffffffffffffffffffffffffffffffffffffffffff90849084818181858888f193505050503d8060008114610870576040519150601f19603f3d011682016040523d82523d6000602084013e610870565b60005462010000900473ffffffffffffffffffffffffffffffffffffffff16331480611a2657503330145b611534576040517f08c379a000000000000000000000000000000000000000000000000000000000815260206004820152600a60248201527f6f6e6c79206f776e65720000000000000000000000000000000000000000000060448201526064016107c0565b600060018281548110611aa157611aa1613314565b6000918252602082206001600690920201810154815473ffffffffffffffffffffffffffffffffffffffff909116935084908110611ae157611ae1613314565b906000526020600020906006020160020154905060008290508073ffffffffffffffffffffffffffffffffffffffff166323b872dd3060018781548110611b2a57611b2a613314565b600091825260209091206006909102016003015460405160e084901b7fffffffff0000000000000000000000000000000000000000000000000000000016815273ffffffffffffffffffffffffffffffffffffffff92831660048201529116602482015260448101859052606401600060405180830381600087803b158015611bb257600080fd5b505af1158015611bc6573d6000803e3d6000fd5b50505050611bd38461237f565b73ffffffffffffffffffffffffffffffffffffffff83166000908152600360205260408120805491611c0483613470565b90915550505073ffffffffffffffffffffffffffffffffffffffff90911660009081526004602090815260408083209383529290522080547fffffffffffffffffffffffffffffffffffffffffffffffffffffffffffffff0016905550565b600080547fffffffffffffffffffff0000000000000000000000000000000000000000ffff166201000073ffffffffffffffffffffffffffffffffffffffff8481168202929092178084556040519190048216927f0000000000000000000000000000000000000000000000000000000000000000909216917f47e55c76e7a6f1fd8996a1da8008c1ea29699cca35e7bcd057f2dec313b6e5de91a350565b6000600482511015611d165750600161074d565b6000611d23836020015190565b60408051808201909152601f81527f736574417070726f76616c466f72416c6c28616464726573732c626f6f6c290060209091015290507f5dd34b9b000000000000000000000000000000000000000000000000000000007fffffffff00000000000000000000000000000000000000000000000000000000821601611e7b5773ffffffffffffffffffffffffffffffffffffffff841660009081526003602052604090205415611dd857600091505061074d565b60448301518015611e1e5773ffffffffffffffffffffffffffffffffffffffff85166000908152600560205260408120805491611e14836133d7565b9190505550611e70565b602484015181611e6e57611e328682612518565b15611e6e5773ffffffffffffffffffffffffffffffffffffffff86166000908152600560205260408120805491611e6883613470565b91905055505b505b60019250505061074d565b6040518060600160405280602581526020016135c360259139805190602001207bffffffffffffffffffffffffffffffffffffffffffffffffffffffff1916817bffffffffffffffffffffffffffffffffffffffffffffffffffffffff19161480611f4257506040518060600160405280602981526020016135e860299139805190602001207bffffffffffffffffffffffffffffffffffffffffffffffffffffffff1916817bffffffffffffffffffffffffffffffffffffffffffffffffffffffff1916145b80611fa957506040518060600160405280602f8152602001613638602f9139805190602001207bffffffffffffffffffffffffffffffffffffffffffffffffffffffff1916817bffffffffffffffffffffffffffffffffffffffffffffffffffffffff1916145b1561201657602483015160648401513073ffffffffffffffffffffffffffffffffffffffff8316036120135773ffffffffffffffffffffffffffffffffffffffff86166000908152600460209081526040808320938352929052205460ff1615925061074d915050565b50505b60408051808201909152601881527f617070726f766528616464726573732c75696e743235362900000000000000006020909101527ff6a1584d000000000000000000000000000000000000000000000000000000007fffffffff000000000000000000000000000000000000000000000000000000008216016120d4575050604481015173ffffffffffffffffffffffffffffffffffffffff83166000908152600460209081526040808320938352929052205460ff161561074d565b5060019392505050565b60006120eb826020015190565b6040805180820190915260208082527f72656e744e465428616464726573732c75696e743235362c75696e743235362991015290507f2975c901000000000000000000000000000000000000000000000000000000007fffffffff00000000000000000000000000000000000000000000000000000000821601610eaf576024820151604483015160648401516040517f6352211e00000000000000000000000000000000000000000000000000000000815260009190849073ffffffffffffffffffffffffffffffffffffffff821690636352211e906121d490879060040190815260200190565b602060405180830381865afa1580156121f1573d6000803e3d6000fd5b505050506040513d601f19601f8201168201806040525081019061221591906134a5565b9250612223858585856125bb565b50505050505050565b73ffffffffffffffffffffffffffffffffffffffff81163b6122d0576040517f08c379a000000000000000000000000000000000000000000000000000000000815260206004820152602d60248201527f455243313936373a206e657720696d706c656d656e746174696f6e206973206e60448201527f6f74206120636f6e74726163740000000000000000000000000000000000000060648201526084016107c0565b7f360894a13ba1a3210667c828492db98dca3e2076cc3735a920a3ca505d382bbc80547fffffffffffffffffffffffff00000000000000000000000000000000000000001673ffffffffffffffffffffffffffffffffffffffff92909216919091179055565b61233f83612818565b60008251118061234c5750805b156116675761112e8383612865565b600080600061236a858561288a565b91509150612377816128cf565b509392505050565b6001805460009161238f916134c2565b9050600181815481106123a4576123a4613314565b9060005260206000209060060201600183815481106123c5576123c5613314565b600091825260209091208254600690920201908155600180830154818301805473ffffffffffffffffffffffffffffffffffffffff9283167fffffffffffffffffffffffff00000000000000000000000000000000000000009182161790915560028086015490850155600380860154908501805491909316911617905560048084015490830155600592830154929091019190915580548391908290811061247057612470613314565b60009182526020909120600690910201556001805480612492576124926134d9565b60008281526020812060067fffffffffffffffffffffffffffffffffffffffffffffffffffffffffffffffff909301928302018181556001810180547fffffffffffffffffffffffff0000000000000000000000000000000000000000908116909155600282018390556003820180549091169055600481018290556005015590555050565b6040517fe985e9c500000000000000000000000000000000000000000000000000000000815230600482015273ffffffffffffffffffffffffffffffffffffffff8281166024830152600091849182169063e985e9c590604401602060405180830381865afa15801561258f573d6000803e3d6000fd5b505050506040513d601f19601f820116820180604052508101906125b39190613508565b949350505050565b6000600180549050905060006040518060c001604052808381526020018773ffffffffffffffffffffffffffffffffffffffff1681526020018681526020018573ffffffffffffffffffffffffffffffffffffffff1681526020014281526020018442612628919061352a565b9052600180548082018255600091825282517fb10e2d527612073b26eecdfd717e6a320cf44b4afac2b0732d9fcbe2b7fa0cf66006909202918201556020808401517fb10e2d527612073b26eecdfd717e6a320cf44b4afac2b0732d9fcbe2b7fa0cf7830180547fffffffffffffffffffffffff000000000000000000000000000000000000000090811673ffffffffffffffffffffffffffffffffffffffff938416179091556040808701517fb10e2d527612073b26eecdfd717e6a320cf44b4afac2b0732d9fcbe2b7fa0cf886015560608701517fb10e2d527612073b26eecdfd717e6a320cf44b4afac2b0732d9fcbe2b7fa0cf9860180549093169084161790915560808601517fb10e2d527612073b26eecdfd717e6a320cf44b4afac2b0732d9fcbe2b7fa0cfa85015560a08601517fb10e2d527612073b26eecdfd717e6a320cf44b4afac2b0732d9fcbe2b7fa0cfb909401939093558a16808452600282528284208a8552825282842087905583526003905281208054929350906127b1836133d7565b90915550505073ffffffffffffffffffffffffffffffffffffffff90941660009081526004602090815260408083209583529490529290922080547fffffffffffffffffffffffffffffffffffffffffffffffffffffffffffffff00166001179055505050565b6128218161222c565b60405173ffffffffffffffffffffffffffffffffffffffff8216907fbc7cd75a20ee27fd9adebab32041f755214dbc6bffa90cc0225b39da2e5c2d3b90600090a250565b6060610a9b838360405180606001604052806027815260200161361160279139612a82565b60008082516041036128c05760208301516040840151606085015160001a6128b487828585612b07565b945094505050506128c8565b506000905060025b9250929050565b60008160048111156128e3576128e3613542565b036128eb5750565b60018160048111156128ff576128ff613542565b03612966576040517f08c379a000000000000000000000000000000000000000000000000000000000815260206004820152601860248201527f45434453413a20696e76616c6964207369676e6174757265000000000000000060448201526064016107c0565b600281600481111561297a5761297a613542565b036129e1576040517f08c379a000000000000000000000000000000000000000000000000000000000815260206004820152601f60248201527f45434453413a20696e76616c6964207369676e6174757265206c656e6774680060448201526064016107c0565b60038160048111156129f5576129f5613542565b03610a79576040517f08c379a000000000000000000000000000000000000000000000000000000000815260206004820152602260248201527f45434453413a20696e76616c6964207369676e6174757265202773272076616c60448201527f756500000000000000000000000000000000000000000000000000000000000060648201526084016107c0565b60606000808573ffffffffffffffffffffffffffffffffffffffff1685604051612aac9190613454565b600060405180830381855af49150503d8060008114612ae7576040519150601f19603f3d011682016040523d82523d6000602084013e612aec565b606091505b5091509150612afd86838387612bf6565b9695505050505050565b6000807f7fffffffffffffffffffffffffffffff5d576e7357a4501ddfe92f46681b20a0831115612b3e5750600090506003612bed565b6040805160008082526020820180845289905260ff881692820192909252606081018690526080810185905260019060a0016020604051602081039080840390855afa158015612b92573d6000803e3d6000fd5b50506040517fffffffffffffffffffffffffffffffffffffffffffffffffffffffffffffffe0015191505073ffffffffffffffffffffffffffffffffffffffff8116612be657600060019250925050612bed565b9150600090505b94509492505050565b60608315612c8c578251600003612c855773ffffffffffffffffffffffffffffffffffffffff85163b612c85576040517f08c379a000000000000000000000000000000000000000000000000000000000815260206004820152601d60248201527f416464726573733a2063616c6c20746f206e6f6e2d636f6e747261637400000060448201526064016107c0565b50816125b3565b6125b38383815115612ca15781518083602001fd5b806040517f08c379a00000000000000000000000000000000000000000000000000000000081526004016107c09190613571565b73ffffffffffffffffffffffffffffffffffffffff81168114610a7957600080fd5b60008083601f840112612d0957600080fd5b50813567ffffffffffffffff811115612d2157600080fd5b6020830191508360208285010111156128c857600080fd5b60008060008060008060008060c0898b031215612d5557600080fd5b8835612d6081612cd5565b97506020890135612d7081612cd5565b96506040890135612d8081612cd5565b955060608901359450608089013567ffffffffffffffff80821115612da457600080fd5b612db08c838d01612cf7565b909650945060a08b0135915080821115612dc957600080fd5b50612dd68b828c01612cf7565b999c989b5096995094979396929594505050565b600060208284031215612dfc57600080fd5b81357fffffffff0000000000000000000000000000000000000000000000000000000081168114610a9b57600080fd5b60008060408385031215612e3f57600080fd5b8235612e4a81612cd5565b946020939093013593505050565b600080600080600060808688031215612e7057600080fd5b8535612e7b81612cd5565b94506020860135612e8b81612cd5565b935060408601359250606086013567ffffffffffffffff811115612eae57600080fd5b612eba88828901612cf7565b969995985093965092949392505050565b60008083601f840112612edd57600080fd5b50813567ffffffffffffffff811115612ef557600080fd5b6020830191508360208260051b85010111156128c857600080fd5b60008060008060408587031215612f2657600080fd5b843567ffffffffffffffff80821115612f3e57600080fd5b612f4a88838901612ecb565b90965094506020870135915080821115612f6357600080fd5b50612f7087828801612ecb565b95989497509550505050565b600060208284031215612f8e57600080fd5b8135610a9b81612cd5565b600080600060608486031215612fae57600080fd5b833567ffffffffffffffff811115612fc557600080fd5b84016101608187031215612fd857600080fd5b95602085013595506040909401359392505050565b7f4e487b7100000000000000000000000000000000000000000000000000000000600052604160045260246000fd5b6000806040838503121561302f57600080fd5b823561303a81612cd5565b9150602083013567ffffffffffffffff8082111561305757600080fd5b818501915085601f83011261306b57600080fd5b81358181111561307d5761307d612fed565b604051601f82017fffffffffffffffffffffffffffffffffffffffffffffffffffffffffffffffe0908116603f011681019083821181831017156130c3576130c3612fed565b816040528281528860208487010111156130dc57600080fd5b8260208601602083013760006020848301015280955050505050509250929050565b602080825282518282018190526000919060409081850190868401855b82811015613184578151805185528681015173ffffffffffffffffffffffffffffffffffffffff908116888701528682015187870152606080830151909116908601526080808201519086015260a0908101519085015260c0909301929085019060010161311b565b5091979650505050505050565b6000602082840312156131a357600080fd5b5035919050565b600080600080606085870312156131c057600080fd5b84356131cb81612cd5565b935060208501359250604085013567ffffffffffffffff8111156131ee57600080fd5b612f7087828801612cf7565b60008060008060008060008060a0898b03121561321657600080fd5b883561322181612cd5565b9750602089013561323181612cd5565b9650604089013567ffffffffffffffff8082111561324e57600080fd5b61325a8c838d01612ecb565b909850965060608b013591508082111561327357600080fd5b61327f8c838d01612ecb565b909650945060808b0135915080821115612dc957600080fd5b60008060008060008060a087890312156132b157600080fd5b86356132bc81612cd5565b955060208701356132cc81612cd5565b94506040870135935060608701359250608087013567ffffffffffffffff8111156132f657600080fd5b61330289828a01612cf7565b979a9699509497509295939492505050565b7f4e487b7100000000000000000000000000000000000000000000000000000000600052603260045260246000fd5b60008083357fffffffffffffffffffffffffffffffffffffffffffffffffffffffffffffffe184360301811261337857600080fd5b83018035915067ffffffffffffffff82111561339357600080fd5b6020019150368190038213156128c857600080fd5b7f4e487b7100000000000000000000000000000000000000000000000000000000600052601160045260246000fd5b60007fffffffffffffffffffffffffffffffffffffffffffffffffffffffffffffffff8203613408576134086133a8565b5060010190565b60006020828403121561342157600080fd5b5051919050565b60005b8381101561344357818101518382015260200161342b565b8381111561112e5750506000910152565b60008251613466818460208701613428565b9190910192915050565b60008161347f5761347f6133a8565b507fffffffffffffffffffffffffffffffffffffffffffffffffffffffffffffffff0190565b6000602082840312156134b757600080fd5b8151610a9b81612cd5565b6000828210156134d4576134d46133a8565b500390565b7f4e487b7100000000000000000000000000000000000000000000000000000000600052603160045260246000fd5b60006020828403121561351a57600080fd5b81518015158114610a9b57600080fd5b6000821982111561353d5761353d6133a8565b500190565b7f4e487b7100000000000000000000000000000000000000000000000000000000600052602160045260246000fd5b6020815260008251806020840152613590816040850160208701613428565b601f017fffffffffffffffffffffffffffffffffffffffffffffffffffffffffffffffe016919091016040019291505056fe7472616e7366657246726f6d28616464726573732c616464726573732c75696e7432353629736166655472616e7366657246726f6d28616464726573732c616464726573732c75696e7432353629416464726573733a206c6f772d6c6576656c2064656c65676174652063616c6c206661696c6564736166655472616e7366657246726f6d28616464726573732c616464726573732c75696e743235362c627974657329a2646970667358221220873230f4addd86162d186c90f6f6b326966a0a2d52f7fd347b235b2ccd1d12d764736f6c634300080f0033",
  "linkReferences": {},
  "deployedLinkReferences": {}
}